1118251366ôZHAN       ûAHòN         MUSTAFA     19047411007516010059000100414101121101720336910KAZIM KARABEKòR MAH. YUNUS EMRE CAD NO:45 DARICA GEBZE417004101305531587171371200000001409061689541474150000001564361843091628570000001689543554960581077650767707721
1219998078NEJLA       EROL          SöLEYMAN    24037321270480020000000027040110825202821434920TOROS MAH.13 SOK.NO:8KAT:4 BòRLòK APT.N:13SEYHAN      011700101040341012731068980000000000000000001181400000000000000000001350040000001434363571960391086280823508432
1223283997LöTFö       GöNGôR        ADEM        31037311250000900020003125004201571101720337930MEHMET AKòF MH.      KAYAKENT SK.NO:7     SELÄUKLU    421004200939911360241163610000000000001466151267910000000000001625031424360000001625033532280481077010794407823
1238388222SEVAL       ûAHòN         ABUZER      30037521020220070020035801010200161101715957920CEMALPAûA M. ôMöR A. C B. ZEMòN K. N:13/D SEYHAN      011200101430331323531370820000001543951437941484830000001714371609561655850000001655853532820991085210858108551
8310493749BAYKAL      BòLGòN        ME MET      24016411800000020003009380048002335401214918810T.C.D.D  òSTASYON    LOJMANLARI           NARLI       467104601084891058491045390000001180631155690000000000001324241301490000000000001374393571570181071810729007235
8313698436FòKRET      AKPINAR       M YAûAR     25046611270170010020003127013100371101720337830YURT MAH. 86.SOKAK   NO:25                SEYHAN      011500100864081242521035010000000000001386320000000000000000001602010000000000001602013513680381107561078510770
8341627394HALUK       YöCE          CUMALò      11016611010000040067033201000104181102515958840BARAJ YOLU 4.5 DURAK UMUT APT.KAT.4 NO.17 SEYHAN      011500100906101285481081870000000000001401901198220000000000001576531372740000001576533516350281087210873108726
8343052254AHMET       ONGAN         ALò         02016511460020020065009246064600581101714015831YENòûEHòR.MAHALLESò  4.SOK.HANDE.APT.3/6              460604601259121034451146521260181372030000001259661373091541410000001429371542471259663511181001084690850308486
8345934987ôMER        KANAT         HöSEYòN     01016411800030020001102363078002251101715954830ÄôûNöK M.NF.KISAKöREKC. SANCAK 2 APT. NO:1            442304401297731087861188200000001405761197261296920000001567821361351459990000001197263552850681081030820508154
8345967799HATòCE      òûKEN         BAHRò       25036421800030080004060280004603415501716634890RIZAòYE MAHALLESò    SOKAK:50 EV:43       MERKEZ      018408001213241060121113190000001311041155341209700000001457731298181354460000001155343572251981073350714207238
8363126492NEZòHE      ATAR          MEHMET      20036621010450000041040933003300521101720338830OSMANòYE CADDESò NO: 111                  CEYHAN      019600101217781063371162120000001345331191281289850000001536651383151481440000001191283571210581095660959309580
8412953674ûEREF       ÄABUKO¶LU     MEHMET      04046511010170050018021301010100371101714797840BEYAZEVLER MAH.BURAK APT.NO: 18/1         SEYHAN      011500100880521127390976530000000000001233890000000000000000001393640000000000001233893551810481079170798807952
8416150737ûEYHMUS     DEMòR         HAMDò       01026411470650010000000047064700291101724946810EMNòYET AMòRLò¶ò                          ÄERMòK      216002101038491081801044900000000000001207420000000000000000001395850000000000001207423551810481093900942209406
8422641919VEDAT       òLK           MEHMET      28066011010120070007019301010104181102515958780CEMALPAûA M 283 S NO 34 ALTINBöKEN AP 3/11SEYHAN      010010100879801313261053290000000000001432801172760000000000001612111351980000001612113513680181089550896608961
8436425117ÄETòN       KAYA          òSMAòL      25056611011080010015002801100100371101714018840T.ôZ.BUL.ôZ.SEÄ.ST B1BLK.K2 NO:10 SOK: 3  SEYHAN      011000100848891174151000640000000000001282290000000000000000001444500000000000001282293551810181080420811008076
8436426821MUSTAFA     òûDAR         ôKKEû       17056611800170030096005780018000391101715955840BAHÄELòEVLER.M.KAZIM KARABEKòR.SK.NO36/1  BAHÄE       808008001115651076531088760000001217021178031190200000001369081330291342350000001178033571570381076030761307608
8444025188FARUK       EMEKLò        ôMER        31086711190500010022003119050611085001914796840MòMAR SòNAN MAH. 1.S DERYA APT. NO:15/101             191001900945101065531031510000000000001168350000000000000000001322590000000000001168353571840681079250771207818
8517317558MURAT       KAYA          DURDU       10106811800420010007001880048002335401214916850YILDIRIMBEYAZIT M.46.SK. NO:1             MERKEZ      018608001253081084661140230000001342661175841230610000001477041312621366190000001381013571570381067190683906779
8517628687AHMET       öLGEN         FAHRETTòN   11066711680070020000000068006802655201121436850ûòFAHANE M D.S.ò SOK.NO:15                MERKEZ      682006801146841036401074740000001263300000001190850000001437990000001365010000001452093571961191087340868208708
8517836528DöNYA       GöLEZ         SALòH       18096821330890043060306033083301171101720334853YEûòL MAH  920 SOKAK NO:23                TARSUS      334403301204851073951156700000001326731195871278600000001509541378761461450000001195873552851181091410914409143
8519025276ADEM        KARAKUû       NECATò      01036811010900010057000401090108315401214916850TELEKOM MöDöRLö¶ö                         KADòRLò     015508001039111093151073610000000000001165311144800000000000001273561251600000001327683571570281052670541205340
8636472934BöNYAMòN    GôKÄEO¶LU     òZZET       25096811010460010008000301040107015101514797860DSò 24. BôLGE MöD. / KARS                             361003601024251112261106800000000000001223431219500000000000001390181388540000001223433571210181085670833808452
8647284816SULTAN      IûIK          ALIûAN      09046921240680020056002201000102231101715954920ZòYAPAûA MAH.6.SK.NO7                     SEYHAN      011400101226871069871145910000001329651172721248730000001483831326991402950000001172723571570481077090771407711
8649112497BAYRAM      GENÄ          ALò         03046811440750030005022501040110415201121438860ADANA CAD.NO:4                            CEYHAN      019600101159241075021133100000001277861193671251730000001455781371651429690000001518673552731091088960889908898
8714783328YöCEL       CöRO          HASAN       10086911440150010073000144064400591101718628870AKBELEN MAH.LòMAN òû SòT.C BLOK KAT:1 NO:2MERSòN      330903301093531123171109160000001197461226791212940000001353371382231368610000001226793553890781077950777207783
8722905689HASAN       SAKMAN        ABDULLA     21057011310000140007058431003100291101715957870CUMHURòYET CADDESò   NO:53/A              ANTAKYA     310303101414271165311282040000001533641284281401210000001712691462741579960000001401213571720991089520892308938
8724249554ERTU¶RUL    ôZER          CUMALò      17116911011190010026000901110109045401214918870KAZIM KARABEKòR MAH. 55 SOK.NO:19         YöRE¶òR     012300101260151142271197550000001382441265531320330000001565881450431504490000001542883552340681091720924509208
8724686559NòLöFER     ASLAN         KAZIM       07017121330020020010012533003305475501712924970MòTHAT TORO¶LU MAH.  650 SK. NO:17/2      MERSòN      330803301427561139121264080000001558951269721395080000001756051465621591570000001689823515430291098550979509825
8738710642MUSTAN      ûAHòN         ABDULLAH    25117011320440010059001532043202025301614918881KIûLA M. 8 S. NO:12  KAT:3                YöRE¶òR     012300100938971158311069870000000000001301461212510000000000001516191426460000001623553551540281106591073610698
8800785646U¶UR        SOYDòNÄ       HALòL       09107211010400000026022601040100611101720338900ULUS MAH 362 SK.NO:7                      CEYHAN      019400101324201078051178220000001414611167731268260000001550221302241403330000001167733571692281067810672606753
8809846149ATA HAKAN   BENLò         OSMAN       01027111800000020060002780003101261101720337880RAHòME HATUN MAH. 63. SOK. NO: 17 D: 2                018508001175411087571137140000001279871192431241800000001436571349711398790000001192433552850281078350786407849
8810189415ALò         ôZER          VELò        10067011330500010032001333053306935601319518920SAKARYA C. UYUMAZLAR APT. NO:1/6          MERKEZ      022000201174091107451151240000001288951219611264750000001461231387851435010000001471973553530181086140841208513
8815368485DERYA       CANOVA        TUNCAY      15037111390440040009025939043900411101715956880K.TEPE M. òNCòRLò C. B.BAHÄE S. NO:8 D:11 BAKIRKôY    347403401018231059371067800000000000001159261167150000000000001309091316180000001159263571691181074110749207451
8830922256CENGòZ      MANGTAY       MAZLUM      10107011010280050091006501000104341102515954890LEVENT MAH. CEYHAN   YOLU öZERò NO:152    YöRE¶òR     013100100966211280911117110000000000001402361237170000000000001584531417260000001584533532280281089000910909004
8838261269òMREN       YILMAZ        ABDòL       28096821011060010056000201100100371101720336880REûATBEY M.16 S NO:37ERGòN AP KAT:1 NO:4  SEYHAN      011200101166591056481101650000001271771162611207300000001429541321801365780000001162613553891081078880795907924
8881981594HAYRETTòN   DA¶LIO¶LU     HALòSVAHòT  01076411011180010005004601110101011101715954800TUFANPAûA M. S.BEYLò CAD. MòLLET B HÄESò  KOZAN       015100101016661052301026220000000000001145150000000000000000001284440000000000001145153553890981069320696406948
8890824357MEHMET KEMALNEBòO¶LU      NEJDET      29067111530100020037003553080602741101720336880MENEVòû SOKAK 74A/8  Aû.AYRANCI           ÄANKAYA     066900601468051493291468420000001582761611511584880000001754831788841759580000001788843514240481086030886708735
8905102129AYHAN       BOZTAû        RIZA        06127311361200030007028336123601361101720338900BO¶ATEPE JANDARMA    KARAKOL KOMUTANLI¶I  GôLE        757007501154771183851216290000001282841310571343680000001474941500641534770000001310573571690381096050950409554
8907016323MELAHAT     COû¶UN        MEHMET      12107221011140010080002480007000691101720337890MAHMUTLU M.          ÄAMURDANO¶LU S NO:106KOZAN       015200101217171103581185520000001364701250911332950000001586011471901554100000001250913552221481110651104911057
8907970763MEHMET ALò  öZGöR         SELòM       22017011310580030011022031050700261101715954891òSKELE CAD. NO:17                         ALANYA      074000701020420974690974581273000000000000000000001378570000000000000000001536930000003511180201079180768007799
8912610831RESMòYE     GöLTEKòN      SAòM        150572218004900106370015800480014411017159549107 MART MAH.34.SOKAK  NUMARA 17            KADòRLò     015508001253951122961190910000001350331220151287690000001494891365931432870000001220153552220881072280728907259
8914954332SEDAT       LEBLEBòCòO¶LU ôZCAN       21107211010120130041068501000702785001920337890NARLICA M. 40 S.     NO:18                SEYHAN      011800101152471465751378120000001303131614981528070000001529131838831752990000001752993531870191113001119211246
8916956661TALòP       ALTUN         AZòZ        05027311230001320022005123006502628009525144890òLÄE TARIM MöDöRLö¶ö                      BASKòL      238002301401431184871283920000001510361296381394140000001673761463651559480000001296383571451181081700836308267
8926297257NEVZAT      BULUT         RASòM       01027211130080030013012413002103595401214918890KIûLA MAH.38.SOK.    NO:12                YöRE¶òR     012500101156271078841134210000001243641168221222590000001374701302301355150000001369343571181681065530670406628
8939727792ôMER        KARATAû       ûAKòR       01017011371405020096013537143702865101514798890SIRACEVòZLER CAD.ESENSOK.NO:4/4 MòTHAT KRûûòûLò       802203401377941087751213680000001537941247751373680000001777941487751613680000001897943515160671120001200012000
8941018340BERRöHAN    AÄIK          HALòL       01097021010470010110001501040100121101720337900BEYAZEVLER MH.10SK.PEMBEEVLER ST.FBL.NO:11SEYHAN      011400101363341082271197230000001461991180761295800000001609981328501443660000001180763571211081073990738707393
8948991515GôKMEN      ERTòK         SALòM       01037211010260060270002701020112851101720337890GöNEûLò MAH.44.SK    NO:119               YöRE¶òR     012900101007711321511204060000000000001441181323650000000000001620681503030000001620683513680581089640897508969
8951211466KEREM       ERDO¶DU       MUZAFFER    11107211550010080006081834003300691101720336920MENDERES MAH.AKARCAM SòT.B BLOK KAT:3 NO:5MEZòTLò     000003301300771247671266810000001393711344771361830000001533121490421504360000001490423532551881069700728207126
8954506716O¶UZHAN     AKICI         ALò RIZA    31087111800020050000400048068001931101720338893MòMAR SòNAN MAH.1/SOKNO/55 OSMANòYE                   000008001254831058161129091229741351831155651226341326741497341301881372211472251155653571692381072750731207293
8955477345FAHRòYE     BòBER         AHMET       09107221530620010082004653065300821101720336890ATATöR  KIZ MES.LòS. BA¶LAR C.SEFAKôY     KöÄöKÄEKMECE346303401309611072571172080000001415111177291277190000001573361334381434860000001415113571331671079130785407883
8960349169FATòH MEHMETERKUL         HALòL       10127211800090020005012180000100371101720337890òSTASYON C. û. YUSUF ûANLI SK. NO 3/4     MERKEZ      000008001138161281021215130000001230891374911308440000001369991515761448410000001374913571570281069550704206998
8970154046MURAT       ôZGôZ         YöKSEL      10037311010163040004024901000100371101720336890BAûHARIK MH. KILIÄ   SOKAK NO:19                      442004400855171202441029320000000000001310530000000000000000001472660000000000001472663516230481080380810608072
8971441385LEVENT      AKMAN         MUSTAFA A   18047111010180020009015801010104181102520338890K.EVREN BLV TOROS M. 50 S AKMAN APT 8/3   SEYHAN      011700101486421318071409930000001605681437461529260000001784571616561708250000001708253531870491089450895508950
8971441626BEKòR       EZGòN         HALòL òBRA  24017111010150010045802001100104181104120337890CEMALPAûA M. 276 S.  M.FAHRò APT. K:7 NO:7SEYHAN      011200101319651126351207990000001450971257771339360000001647961454901536420000001257773551660181098490985609853
8973913263ôMER        KONAKLI       ALò         23017211800400010046000601000109045401214915890SELEHATTòN EYYUBò MAH95 S NO 79           YöRE¶òR     012400100986331079181038440000000000001208760000000000000000001403130000000000001500323551540281096580971909689
8975061922HAMòT       MòS           SABAHATTòN  22017211010190110098074401010100291101715958890KURTULUû MAH. 298 SOKCAN APT. 6/7         SEYHAN      011200101134671230931219080000001257331355011342450000001441321541121527500000001541123516350281092000930609252
8981404052SöHEYLA     ôZCAN         HASAN       28056921010268020012003501000110255201121436890YEûòLYURT MAH.184.SOKNO:30                SEYHAN      011500101145701074251122480000001248311175981224650000001402241328581377910000001454543571961391076960763007663
8987052688ûöKRö       UûAN          NECòM       01027211470700010013004947074701595401215058890NARLICA MAH.14.SOKAK NO:2                 SEYHAN      011800100997141316921174600000000000001429971286850000000000001599541455220000001429973551271181083580847808418
8995087725ORHAN       AYDAû         MEHMET      27037211010960010027000301000108895401226667890YENòYöRT MAH. 16 SK. NO:8                 SEYHAN      011600101250891117801180470000001363941231471293830000001533511401981463870000001231473553891081084780852508502
9002675057YADòN       KAYA          ûAHòN       05097111230870020080004423082302855401226664901SALIBABA MAH. SA¶LIK SOK. NO:14           ELAZI¶      230002301145971049651080311217521266830000001201921338381448120000001384341519671201923511180701090650917709121
9003239467NòLöFER     ôZTöRK        ôKKEû       24057321010450040017029280028000715001920337900GAZòPAûA MH. 6 SK.   NO.15                SEYHAN      011400101413661153971279430000001538351278651404120000001725401465681591150000001538353553410371093520935109352
9003879617MEHMETALò   DURU          OSMAN       17117211330460010008002133043306935601322534920AKSARAY.DEVLET HASTA.RADYOLOJò.SERVòSò.               681006801196991090131119080000001311851202291232590000001484131370531402850000001454653553380381086140841208513
9011776461MURAT       ôZMöû         MEHMETSAòT  05057211010630060004028301060108565419117195910òSLAM MAHALLESò      EV NO:247            FEKE        016600100964931094591040980000000000001183010000000000000000001315640000000000001381953554450481065750663106603
9019463119SELMA       òNCEO¶LU      AHMET       20087321800420010030001280040106785311328927910TOROS MAHALLESò      15 SOKAK NO:24       SEYHAN      011700101386561255531308690000001533961404651457350000001755061628321680350000001740163553651081110551118411150
9026790050KASIM       YöKSEL        MEHMET û    01027411471130020022005647110101421101720338910YURT MAH. 191 SôK.   ALKAN APT. NO:14     SEYHAN      011700101073791103101159030000001168161198771254050000001309711342281396580000001198773571210181070780717507127
9032357911òLHAMò      EREL          ABDULAZòZ   11027211800030020005012925088002335401226668900FATòH MAHALLESò      20. SOKAK NO:9                   018308001075501385891233950000001176761488481335870000001328641642371488760000001488483552611681075940769407644
9032550365GöNEû       AKIN          SUPHò       02097321471100010064002247110101421101720336900HöRRòYET M. 22 S.    NO:9                 SEYHAN      010200101437511183921298610000001572211319121433560000001774271521931636000000001636003515430291101031014010122
9034396035HöNKAR      TOSUN         NECòP       18027421800060030005015980008002251101715954900TUNA.MAH.AYBER.CAD.  NO:121               OSMANGAZò   162001601345091060281187370000001453271169821296230000001615541334131459520000001169823571691681081140821508164
9034467725MUSTAFA     ôKSöZ         ERDO¶AN     25087311800420010100002580040100291101720338900DôûEME M EMLAK BANK  EVL. AKASYA APT NO:15SEYHAN      011300101447971437281448570000001591001580961591920000001805551796471806960000001806963512520491107271077610752
9038400014ELòF        AûLAMACI      H MEHMET    15067021440520020046007944050100531101720336910MAHFESI¶MAZ M. 50 S. NADòR ST. A/BLOK D:36SEYHAN      011700101457171143461284410000001547231233101374260000001682331367571509040000001547233553411671067550672306739
9046727648öNAL        FARSAK        NACò        04047411010460020031002601040108315401226667900YAVUZLAR M. 29.SOKAK NO:28 KAT:3          YöRE¶òR     012200101245811266841325590000001385511406981465510000001595071617191675390000001406983551931981104781051110494
9052417155ALò         YURTALAN      MEHMET      13117011460010010085002846004600581101715955900EMNòYET AMòRLò¶ò     LOJMANLARI           PöTöRGE     448504401198651054641139140000001326881183171267520000001519221375981460090000001183173571840581096170964009629
9053703843AHMET SERHANô¶RETMENO¶LU  HAKKI       25067311010940020072004401000104671102520337900KURTULUû MAH. 17 SOK.NO:12 KAT:2/4        SEYHAN      011300100881571080550986490000000000001197300000000000000000001372430000000000001197303571210281088810875608819
9055516135ASLI        SAYIN         AHMET       27077421010420070041048501000104671102520336910TURGUT ôZAL BULVARI  ÄAKIRO¶LU APT. 6/16  CEYHAN      000000101156361087821156470000001265321194741264410000001428751355121426310000001194743571211081081720801908095
9081760466ALò         KAYDAK        EYYöP       01017211630800900000900001000103611101714797902DEFTERDARLIK MUHASEBEMöDöRLö¶ö                        013300101451751205021309320940681583101336281440630000001780121533181637590000001780123532790371098510984509848
9100166493SEBAHATTòN  SUVA¶Cò       HACò        25046911300010010029000830003000825401227768910DERMAN MARKET        KAYACAN APT.         HAKKARò     300003000992711116461080770000000000001223981187000000000000001385261346340000001465903551660881078710806407967
9101741865HAKAN GAZò  GEVREK        ALò         08017411010400010052000101040106295301619876921MURADòYE M. 181 S.   NO:57                CEYHAN      019600100849931178860994360000000000001285760000000000000000001446100000000000001526273552610281076930801707855
9102364914AYSUN       AYLI          RASòM       15077221011140068327038601110101011101724314910HACIUûA¶I MAH        HAKAN SOK NO/16      KOZAN       015300101343511104761209650000001442651204281308980000001591361353571457980000001442653552191971074350746407450
9112798374ASUMAN      GôKDEMòR      HASAN       03057421011160010037003801110110585201121438910A.PAûA M.            M.KEMAL S. NO:36     KOZAN       015000101326211130051224420000001428901232901327190000001582931387171481340000001558413554841991077010771307707
9113600334MUSTAFA     ASLAN         KANBER      13127411330830030005019433083304745401220488910KIRATLIO¶LU MH. YUNUSEMRE CD.NO:61/2      NEVûEHòR    501005001195141159201158450000001302661267771266490000001463941430621428560000001267773551810881080640814308103
9121351716TAYLAN      öNLö          SAYIM       22067411800020010001000180008002335401220484910ALòBEYLò.MAH         KEMAL SATIR.CAD.NO:67MERKEZ      000008001343421147321231730000001397651202141286250000001479001284361368040000001202143572250281040670411104089
9123313126GöLTEN      GöLMEZ        SEYòTALò    01107521230080180027126562022303255201111075910TOROSMAHALLESò40.SOK.ALTANAYDINSòT.ABLK/19SEYHAN      011700101283841051151152390000001425071192321293590000001636911404081505390000001425073571330871105921058810590
9125702553HöLYA       ERTEKòN       MEHMET ALò  04047321010130020003016601000109615506631194910GöZELYALI M. 117/SK. NO:7 AKDA¶ AP.K:4 D:9SEYHAN      011700101254311055801170150000001358471158511273580000001514701312581428740000001158513572250481078120770307758
9129658777HAYRòYE     SEZGòN        òSMET       02027421580901010034000258095801241101720337910KARAFATMA C. SöMER M.KAYNAK A. 22.S NO:2/3SEYHAN      011200101346741127891232590000001468871247991353710000001652081428151535390000001468873571331071091600900809084
9130304079SEVòL       ALEV ORAL     SELòM       21067321310040010022003531003104675501716636910ATATöRK C. 18. S     HUZUR APT. NO:14/1   ANTAKYA     310403101238321061211158540000001385281207711305270000001605731427451525360000001715953554180471110221098711005
9130742945CENGòZ      YILMAZ        SELAHATTòN  15107411500500030081003850050100291101720338910100.YIL TEKART 1.BLOKKAT:3 NO:10          SEYHAN      013600100985621213501107480000000000001316431209280000000000001470831361990000001470833532551481075510772007635
9133091049ERSòN       ASLAN         MEHMET      04027511330400010075003633043301411101720335910ELVANLI KôYö ARIZLAR MAH. NO:27           ERDEMLò     333503301075871267181190700000001189021377241302310000001358741542341469720000001542343516231881084860825508370
9140932253SEZGòN      GöMöû         HASAN       05067411310800210014024631083101421101715956910TEKEBAûI BELDESò     ATATöRK MAH.         SAMANDA¶    318203100980991201261096270000000000001313841208000000000000001482701375590000001482703532550481083160844308379
9145502843MEHMET      TOPAL         HASAN       16106011800010020015008480000108315401214918960RAUFBEY MAH. ôZGöVEN SòTESò 9.BLOK.NO.21              018408001118091070351074440000001188041142881145680000001292971251681252540000001306083571570181052460544005343
9149930395EMRE        AVûAR         MURAT       03077311580810010003000155000107671103320336910ATATöRK CAD.NO:171   EKMEKCòLER APT.KAT:5 SEYHAN      011200101130281451851328080000001244271570561444430000001415261748621618950000001748623513170881085490890308726
9155063925HöSEYòN     ONAR          òBRAHòM     01117111800030050024033380008002251101720336913ATATöRK CAD.NO:270                                    018208001140371093241122420000001248341202571231070000001410291366571394050000001202573552850181080970820008149
9161278241SERAP       YöZBAûIO¶LU   ôMER        01037421330540010107000133053300361101720334910SARAY M.ûEKERLòK S.  NO:28/C              ANAMUR      336403301318081119281213530000001415751214541309990000001562251357431454690000001214543552852481073250714407235
9167962616HALòL       OVAYOLU       MAHMUT      13057211460620070026048846062703721103315958910TURAN EMEKSòZ MH.    M. E¶ERCò SK. NO:65  ûAHòNBEY    272002701088931635421372700000001193371746251480330000001350021912491641780000001912493532160281078330831208072
9174500351NAZAN       ôZDEMòR       NEVZAT      03077421010160010048000391000100121101720336910SAYDAM CAD. AKKAPI   MAH. 40 SOKAK NO:22  SEYHAN      010400101127321352571256960000001242401467531371980000001415021639971544510000001467533553380981086310862208627
9186199773ôMER        AYDIN         RECEP       13117211010468030030004001040100611101720334910CUMHURòYET MAH BAHÄEKAPI APT NO:A/3       CEYHAN      019600100992891082881088630000000000001162801168970000000000001282681289480000001162803551810181060570599406025
9188755896SELMA       KAÄMAZ        KAZIM       22087421310530170004149631063100941101720337910DUMLUPINAR MAH. 220. SOK. NO:25/2         òSKENDERUN  312003101285661136731231160000001400721251141345900000001573321422761518000000001345903571721491086300858108605
9190063535ERKAN       ôZEL          TAHSòN      18067111010450010020001801040110415201121436910EMNòYET MöDöRLö¶ö    TRAFòK BöROSU        ELBòSTAN    463004601279291099451176170000001357291177521254210000001474301294631371270000001177523571690681058500585505853
9191723889AYNUR       KETEN         KòRAMò      24037421010100060003045901000110255201121436910ZòYAPAûA M.          54S. N:8             SEYHAN      011400101206871022841126980000001301150000001220760000001442580000001361430000001431763571960791070710699507033
9197164577SALòHA N    GôZBAûI       ABDURRAHMA  17017421381100080035005638113300521101720337911MADAZI MAHALLESò     GôZBAûI CAD. NO:87   YAHYALI     385003801235511186101202620000001362631313591329920000001553311504821520880000001329923571721091095340956209548
9198747561CAVòDE      ERDEMLò¶      KEMAL       08086221010170040117008301010100371101720337800HURMALI MAHALLESò    8 SOKAK NO.5 KAT.3   SEYHAN      010600101313451158591273140000001461741307081421530000001684171529821644120000001644123532820291111221113711129
9202010299òSMAòL      ôRNEK         ALò         12097511310300030043005731023100781101720336920MAHMUTLU M. MAHMUTLU C. NO:103            ERZòN       319603101502141388801436300000001623621510091557690000001805851692041739770000001739773511330591091110909709104
9203157422ESRA        ALTINSOY      M YAûAR     26107521310210050002025400013100451101715957923ERCòYES öN   TIP FAK.HAS. BEYòN CER. SER. KAYSERò     380303800963691226561073810744910000001344711191850000000000001521931368920000001521933516230681088450886108853
9206561045NòLöFER     SARPKAYA      ôMER        15077521310500120096001731053100941101720336920òSMET òNôNö M KôRFEZ KOOP.704 S NO:76/2   òSKENDERUN  312003101364641217041276950000001524641377041436950000001764641617041676950000001676953532820591120001200012000
9207299946HöSNòYE     TATAR         TURABò      30067421440344190049001144003432565502531198923MòTHATPAûA SOK. NO:28                     KANLICA     816103401346221073981191980000001464351182331305220000001641551344851475080000001730153554181071088600812608493
9207448241ALPER       òNCE          NAZIM       06087611011120010107001550040101751101715957920T.ôZAL BUL.MELTEM APTNO:79/A KAT:4 D:14   SEYHAN      017700101105491219971221710000001227061338071341550000001409421515231521300000001515233532551381091180885808988
9212235665MULLA KAAN  KESòLMEZ      FEVZò       27017511800404050012021401110101011101720336920MAHMUTLU M.ÄAMURDAN  S.NO:43              KOZAN       015300101359741280951325560000001485181406611451110000001673341595101639440000001639443532820291094080942409416
9223245263NECMò       DO¶AN         MöCAHòT     02087511201806030003017703052001931101720337920HAMDòYE MAH.13.S0K.  NO:42                BOZKURT     203702000983611213051138910000000000001326141251350000000000001495781420000000001495783516230881083840848208433
9226641682RAFET       YILMAZ        MEHMET      01057511630500280114000563056301331101715956920O TAYOL KôYö                              HALFETò     639806301194711114281190490000001298721219021294860000001454731376131451420000001219023552220681078010785507828
9228417699MEHMET ûENOLGòRSOY        HAYRETTòN   01017411010167030014010601010103371101714794920KôSRELò KASABASI                          CEYHAN      019200101296591074161163890000001378421157771246610000001501171283181370690000001157773551811181061370627106204
9228731074NEVòM       YOLCU         RASòM       26077421750110020093003975017500621101724318920SOK 45 NO 6          KòREÄOCA¶I KôYö      SEYHAN      013740101338531056581168030000001464211181591293370000001652731369111481390000001464213551782371094260937609401
9230168255YUSUF ALKAN AKGöL         OSMAN       03087411530001410031001591003511295401226665930200 SOKAK NO:109/10                       KöÄöKYALI   352803501089231301521248830000001201061413241360610000001368821580821528270000001413243516231481083880837908383
9231321118ALò         TEKòN         MEHMET      25077211310710020020011831073101341101724315920ÄEVòK KUVVET ûUBE MöDûANLIURFA                        631006301305771089651171180000001419661201961284280000001590491370431453930000001201963571180881085410842308482
9231351173AKIN        SEVEN         HALòS       10027511290440020059005329042900221101720336920ATATöRK MAH. 760.SOK NO:14 KAT:2          BORNOVA     350313501397941083231227970000001439791125621270090000001502571189191333270000001439793571332071031390317903159
9233034024MUSTAFA     ôZO¶UL        MEHMET      01017311000650030000006301060101011101720336920KIûLA MAHALLESò      119. SOKAK EV NO:33  YöRE¶òR     012300101070811210021153330000001190111329581272760000001369071508921451910000001508923516230381089480896708957
9235257574OKTAY       ôZCAN         SEFER       14117411010240030010017501020112851101715956920PAMUK öRETME òSTS.   PK.NO:45             YöRE¶òR     013210100859891223661039900000000000001322510000000000000000001470780000000000001470783516230581073960741307405
9236701143ôZGöR       ôZBAY         YAHYA       04047411200720020005011620072009553001114796920HöRRòYET MAH. NO:28                       ÄARDAK      203502001277811049811154780000001410250000001286370000001608920000001483760000001410253571330871099330980609869
9237844552MURAT       öZER          MAHMUT      15077311011010060067013901100112851101720336920YAMAÄLI MAH 14 SOK NO:33                  YöRE¶òR     012800100867221256671070390000000000001368311181940000000000001535781349270000001535783516351881083600837308366
9237912264HATòCE      SòL           ARòF        15047321460181010019001746014600171101720337920KôTöRE KôYö                               AFûòN       465004601295431266661306470000001446221417391457230000001672401643501683370000001683373532820791113091130511307
9243486448DENòZ       OLCAû         OSMAN       15017511010420010013009501040110415201121436920MURADòYE M. 19 S. N0:60                   CEYHAN      019600101292041122461230840000001357731188161296530000001456261286711395070000001188163571210781049270492704927
9248936459O¶UZ ûERòF  ûERòFO¶LU     HAYRETTòN   24077511010430020012010201040100611101715957920HALKKENT 2979 ADA    C/BLOK KAT:1 NO:1    MERSòN      330543301233751264161282640000001341791371651390400000001503841532881552050000001532883516351781081030806208082
9251674989MULLA       KARAKAû       òBRAHòM     20077511011100050008023801118002251101715956920BAûMAHALLE 35 SOKAK  EV NO:22                         018308001276051127871179100000001395181248071298760000001573871428361478260000001248073552462081089340901508975
9253842862CENK GAZò   OSKAY         ûENEL       01077511010400010054000333003300691101720334921CAMòûERòF MAH 30.SOK.òSTEK APT. NO:2/12   MERSòN      330603301332491209891278550000001440791321401388460000001603251488671553320000001488673516351881081230836308243
9256339289NAZAN       YAMAN         NEVZAT      08037621330810010021004733083301171101720335920YARBAY ûEMSETTòN MAH.UÄKUN SOK. NO:24     TARSUS      334703301522331350701407140000001625031453471509870000001779081607621663970000001663973532820991077020770707705
9256695857ANT BARIû   KAYNAK        CEMòL       09097411010710020024010201000104261102518626920Y.BARAJ MAH.55 SOK.  DòLEK APT KAT 3/6    SEYHAN      010100101037171204781182160000000000001306971285130000000000001460261439600000001460263516230281077820766407723
9257117856SALòHA      PAK           KAZIM       09067621010229020006012501000110255201121434920MAHFESI¶MAZ M. 49 S. NO:4 PAK APT. KAT:A/4SEYHAN      011700101400901182511298240000001529351310481426450000001722041502431618770000001714933554841991096340959809616
9257879837TöMER ôZ    GöR           NECMò       10117411310210060055017531028002335401215116930CUMHURòYET MAH.      110/4 SOK.NO:7                   018308001004591101171107430000000000001202861208440000000000001355401359960000001431673554960181075250762707576
9259239983FARUK       ÄOT           MEHMET      01017511460280020033004746020109045401226668923YENòDO¶AN M. 45 S.   NO:1                 YöRE¶òR     012600101043391069441056840000000000001187701174550000000000001365091351120000001187703571840181087870887008828
9259429277MEHMET      TöRKO¶LU      FUAT        10077411800210010237001680028002335401215116920H.OSMANLI.MH/GöNEYSU/CAD.NO.128                       018208001062521078181115700000001162241179271216110000001311831330911366720000001406733554960181074790758207531
9259914873DO¶AN       BòLGE         ûEHMUS      23097411470600030011013247064700291101720334920YENò MAH. NAMIK KEMALCAD. NO:16/A         KIZILTEPE   474004701390141314601382370000001497471422551490010000001658461584481651470000001584483532280781080490809608073
9266367577SELCEN      KUYULU        ôKKEû       20027621800010030003019580008001931101715957920KURTULUû MAH 19 SOKAKNO:5                             018408001232461077841129510000001360021205651257190000001551361397361448720000001205653571570281095670958609576
9270180551MUNòSE      KöÄöK         ôMER        15117421800227020114003731078000631101724314920ÄAMòÄòKôYö                                DöZòÄò      016008001339061058941161200000001475421195361297590000001679951400001502180000001475423554721971102271023210229
9273306341HòLMò       YILMAZ        HòLMò       10037511640100410125002864016400641101715957920KARAA¶AÄ MH.         KIRLANGIÄ SK. NO:34  MERKEZ      641006401323921205751267300000001421231304311365240000001567201452151512140000001452153516231581072980739207345
9283018241SUNA        ERGöN         HöSEYòN     10027521490470020010004849044104945201121434920ÄA¶DAûKENT MAH. GòMEMSòT. 3657 S0K. NO:2/2MERSòN      000003301320361095131204660000001419501192251302790000001568201337941449990000001523593552730891074350728407360
9285217895ZAFER       KOYUNCU       HöSEYòN     05037511010000010042002801000108895401214916920DERVòûLER M 32 S NO:5                     YöRE¶òR     012600100859891223661043950000000000001313700000000000000000001448770000000000001516303551540481066820675306718
9285469232ERTU¶RUL    EKER          KAZIM       28057411010464010052000101040100371101720338920DUMLUPINAR MAHALLESò 152 SOKAK NO:7       SEYHAN      010700100853601195371017700000000000001293630000000000000000001441030000000000001293633551661081072880737007329
9289497045MERDAN      DA¶           HASAN       08097311460130010061000646012700721101715957920ATATöRK C.VAKIFLAR òûHANI KADASTRO MöD.K/5            580505801179151216161214030000001294011329701328230000001466291500021499530000001500023532550781086140851608565
9291298726MAHMUT      öNSAL         ôMER        06027511190600420026004419061901665301615958930FòLYOS SOKAK 20/1    SUBAYEVLERò          KEÄòôREN    061300601009711373511155350000000000001531571313400000000000001768671550490000001531573516350381118531185511854
9291356397HATòCE      ATAû          SABAHATTòN  20077321011180010114000101110111065601314647923ERKòLET SA¶LIK OCA¶I LOJMANI              KOCASòNAN   380803801361601057231207110000001470811163111314660000001634641321941475990000001470813552190471081910794108066
9294529491AHMET GôKHANGöRBöZ        HASAN GAZò  19027411000048030003017401000104671102520336920SöMER M. 640/23 S.   AKYöZLöER APT. NO:34 SEYHAN      011500101138441153321144870000001237181249611242390000001385291394051388660000001249613571210181074050722207314
9295448359HASòBE      ÄINKIR        MUSTAFA     01027321460200010093005846022504875601314646920ûEHòT ô¶RETMEN ORHAN GôK LòSESò           KADòRLò     015508001325521058171177750000001422271149961272020000001567391287661413430000001149963572252181072560688507070
9299016975BURAK       GôZET         M  KEMAL    12067511010190010032002901000108485408621376920ZòYAPAûA M. 5. S.    NO:17/3              SEYHAN      011400101150391301671246850000001265171417361362090000001437351590891534940000001417363516230481086090867708643
9312252861ERSAN       KOCA          RASòM       100276111803200200070036180306007111017203389309. ANA JET öS 192.   FòLO K.LI¶I                      100501000986061206871144440000000000001319521257000000000000001488501425840000001488503532551481084350844908442
9315032318ôMER        ôNAT          VAHAP       19067611460560020006002780003100531101720335930ò.D.Ä LOJMANLARI     E/19 NO:24           òSKENDERUN  313193101198411603711367180000001252041660101422190000001332481744691504700000001744693513171381040220422904126
9315393398HöSNE       ôZARSLAN      B ALò       01017621011180010091000701110101831101724314930KABAKTEPE MAH.       KOZAN CAD.NO:848     YöREGòR     012500101331461050531168060000001441961160311278200000001607711324981443410000001441963552192071082880823408261
9316446989SAVAû       YöCEL         SöLEYMAN    20047511361300320056000236133602995401215114930DO¶UBEYAZIT CADDESò  ALòYYöL MöRTEZA YURDUI¶DIR       760007601309171079201172550000001400261172061264530000001536901311351402490000001381003554331781068320696506898
9316647798ALPER KORAY ôZKAN         MöHòTTòN    12067611330860020054002601010102231101715956933TOROS MAHALLESò 1894 S.BARIûAAPT.NO:24    SEYHAN      011700101149861402411318260822731258711511321427140000001421991674691590470000001674693513680781081640816808166
9318001565YASòN       KURTGôZ       AZòZ        250174114600800100250018460041002311017203389308829.SOKAK NO:6/10   EGEKENT              Äò¶Lò       352503501347181069711189990000001458231180871301100000001624821347611467760000001180873571840181083290833708333
9318610758HACI        USTA          VELò        05037911800040010066000680008001931101715956930KôYYERò KôYö         DURMUûLAR MAH.                   018208000982661114221068070000000000001221751175390000000000001383041336380000001221753571570181080340806408049
9319504112HAKAN       GôKûEN        HAMZA       20087611380290010081003006000600711101720336933ÄEVRELò CADDESò      ÄABA SOKAK NO:2/1    AYDINLIKEVLE061300601053811632091323340000001190401768771459980000001395291973791664930000001973793513440481102441025110248
9319994409U¶UR GôKHAN KEDERO¶LU     CAVòT       05037611800410010074000180048001441101715958930PARK CAD. NO:46                           KADòRLò     015508000943581325191110290000000000001456131241040000000000001652551437180000001652553513681781097930982109807
9320232331AHMET       AVûAR         YAHYA       24057211510520010104003351052604418013518146930TCDD 6.BôLGE MöD.  5 MALò òûLER MöD.      SEYHAN      013300100941951051381002560000000000001140610000000000000000001274460000000000001140613551810281066310669206662
9321061075MEHMET ALò  KARAÄEVòRGEN  SöLEYMAN    15087611011500108662006401160109375401214914930YURT:M H:40:SK:NO:27                      SEYH N      011500101296751195231244560000001392691292501341160000001536591438401486070000001511353551540281071950729507245
9321787375ABDULKADòR  AKKUû         òBRAHòM     17087411020390040000011502030109045401214916930DADALO¶LU MAH.19 SOK.EV NO:24             YöRE¶òR     012500100878421117961001590000000000001180620000000000000000001274610000000000001321603571180281046650469904682
9322022501OKTAY       DURAKTEKòN    ûöLEYMAN    01077611010240070004053801020100371101720336930¶òRNE BöLVARI NO:75  YöRE¶òR/ADANA        YöRE¶òR     012200101101711400681279660000001152341451811330540000001228281528521406860000001528523516351881037970383503816
9322543278KEMAL       öNAL          HASAN H     10117511190400700073000319040602991101720337930DERBENT MAHALLESò    62.SOKAK NO:20       MAMAK       062700601504341304121398840000001646981447021541610000001860931661371755760000001755763531871091106981071710708
9324361823AHMET       ôZDEMòR       MEHMET ALò  16087611420270010003000843004210725401227766930YILDIZ M.233 SK.DUYGUAPT NO:7/3                       071000700909271093431028430000000000001189550000000000000000001333740000000000001189553552850381070240720907116
9325013128BAYRAM      ÄOMO¶LU       AHMET       12127511530350030036007334183419285301614916940ADATEPE MEHTAP SOKAK DO¶U APT. NO:31/9    MALTEPE     815303401296541538111429750000001416821662421552040000001597241848891735490000001662423513291681090210932309172
9326922167MURAT       BAûTöRK       RASòM       07117611330820020018010133003301821101715958930BARBOROS MAHALLESò   2124 SOKAK NO:5      MERSòN      331503300898671346591109240000000000001440121202490000000000001580431342370000001580433513681281069730701506994
9327011357SERDAR      ATASEVEN      RIZA        12077611710010120080003671007100561101715957930FABRòKALAR MAHALLESò 24.BLOK NO:3         MERKEZ      711007100874561289681094410000000000001403711207680000000000001574751377600000001574753532280381084390855208496
9327199869ABDURRAHMAN AKTò          HAMòT       18107411310510050008043531053103455101514796930YILDIRIM TEPE MAH.   386 SK. NO:9         òSKENDERUN  312403100898141395781157840000000000001519271281590000000000001704501467210000001519273554691981093010926209281
9328537959AZòZE       GöRBöZ        MEHMET      10087621510030010003000151000109535501731194930GöZELYALI MAH. 19 S. NO:3 SEYHAN/ADANA    SEYHAN      011700101390251117391240770000001507271234041357600000001682801409011532860000001770573554180171087770874908763
9328946861ZEYNEP      ÄAKAR         BòLAL       30017521040370010009000701000105975301618565930FATòH MAH. 115 SOKAK NO: 13               SEYHAN      011600101000841075681079080000000000001133441136350000000000001220081222250000001133443572250781042580433204295
9333107864NESLòHAN    KARAPINAR     MEHMET      05087521630320010004003363030110745201121436930DUMLUPINAR M. 122 S. KAT:1 NO:11          SEYHAN      010700101146051058641133560000001265681177671252890000001445141356221431890000001521393552730391089730892708950
9334779918YASEMòN     BOû           YAHYA       21017621310140020016009331013104675501716634930FATòH CAD.BAHÄELò SOKRòFAòO¶LU APT.NO:5/1 ANTAKYA     310303101279901110791180230000001411241241111311060000001608251436581507300000001706763554180871098510977409812
9336793676HAYRò       GöNGôR        MöNòR       09047411010170040023025701010100291101720336930NAMIK KEMAL MAH. 75  SOK. EV NO:15        SEYHAN      011400100834911128460977600000000000001222630000000000000000001363880000000000001222633552220781068680706206965
9336899017MUSTAFA     ERO¶LU        MEHMET ALò  01057511630840130020107363083305065401212028920CEZAEVò MöDöRLö¶ö                         SòLòFKE     339603301337471154971225290000001452741271561341220000001625641446441515110000001533883554691981086450874408695
9337618823MöBERRA     AKDA¶         MEHMET      12087221800650010017001880000112851101724314930YILDIRIM BEYAZIT MAH.SOK/NO:16.EV/NO:25.. TOPRAKKALE  018608001347181069711199870000001424371147211277210000001540151263461393220000001147213572252281057890581205801
9337826265MUSTAFA     NòZAMO¶LU     RESUL       16017611800470020062008031000100291101720338930ATATöRK C ZòRAAT     BANKASI KARûISI 41/B REYHANLI    315003100879281310901080710000000000001376141145650000000000001473991243070000001376143551270281048490489304871
9338351992BALA        ACER          òSMET       10077621800290040022011680018000555002724318930òSTòKLAL MAHALLESò   AHMET GöZEL C NO:46/1DöZòÄò      016008001406841174871287470000001541461310431422560000001743401513781625210000001844373515790271100971016710132
9340346406MAHMUT      TARDU         AHMET       01017711010200020004010556020109455401214918930GöZEL YALI MH.143 SK.S.ôZDEN AP.NO:32 D:22SEYHAN      011700100889231355701133540000000000001454031231270000000000001601521377860000001454033554210681072850737407330
9342224049NòHAL       KISAK         öMMET       15077621011700010030000901170100531101720337930DERVòûLER MAHALLESò  23 SOKAK NO:25       YöRE¶òR     012600100872991282611077120000000000001395271189920000000000001564271359130000001564273515551381084710845008460
9342265325MUSTAFA     BAûAR         YAHYA       11047611310200020155004131043100451101720336930BEYAZIT BESTAMò CAD. NO:31                DôRTYOL     316003100906521433511156160000000000001491371213960000000000001578151300660000001578153516111881043310433904335
9344786129HAKAN       ÄINAR         HASAN       25087611581710030042004042110100371101720337930TOROS M. 108S. CANHANAPT. A BL. K:10 N:20 SEYHAN      011700100891601237431080210000000000001345221187540000000000001506911348540000001506913532551281080150808408050
9347274995ABDULLAH    ôZDO¶AN       MEHMET      04107511800150040086001080010100291101720337930SòTELER MAH.725 SOK  NO:10/2              AKDENòZ     330403300920981060170990970000000000001162730000000000000000001316570000000000001162733551810481075220769207607
9348801957SEÄKòN      GöNEû         ôSMAN       10117511521270040019047706004800981101724318930DADALO¶LU M KISMET APT NO:10              YöRE¶òR     011400101355041105081231750000001454691205201331640000001604171355391481470000001331643571722091074740750907492
9349464542EDòZ        EVYAPAN       òBRAHòM     04017711800490020056005080048001441101720338930VEREM SAVAû DòSP.                         KADòRLò     015508001287901421881377960000001426781561031516980000001635111769761725510000001725513511720591104161043610426
9349559864TAHSòN      YILDIRIM      ALò         17098011620600440021001162063100291101724315930BEYDA¶I TELEKOM MöD.                                  441054401345521053651184210000001451091158701289520000001609461316271447490000001451093551781971079180787807898
9350600349ôZNUR       OTAY          HASAN       15047621010430040011011901040100611101724314930BòRKENT KASABASI     YENòKENT MAHALLESò   CEYHAN      019340101284531123031210800000001402561240621328610000001579611417001505320000001328613571722291088520881908836
9352832625HAYATò      YABANA        SELòM       01017611310530040009019131053102071101724316933MADENLò BELDESò      GöZELTEPE MAHALLESò  òSKENDERUN  312003101365621058121206520000001413871107491255330000001486241181531328540000001413873571331471036190370203661
9354624954MERVE       ONAN          MEHMET SAY  19067521800080020000000080008002665501712926930YILDIRIM/BEYAZIT/MAH 66.ô¶R/EV/S/100/EV/10            018408001210361072931144270000001307021167911240090000001452001310391383820000001167913572251481072490712407186
9355477922HASANHöSEYòNUYARLAR       NAZMò       03017311010060010107000101000100371101720335932òSTòKLAL MAH.34 SK.  EV NO:1              SEYHAN      010800101084091183831119740000001136501236721172390000001215131316061251370000001236723551811581039310396703949
9356488078MURAT       ANGAY         HöSAMETTòN  03037511011060020075008201010104181104115956930BEYAZEVLER M. 10. S. YILDIRAY APT. NO:29  SEYHAN      011500101470881265301364520000001599301393821492990000001791921586601685690000001685693532670491096310963909635
9358927003KENAN BARIû DEMòRDELEN    HALòL       18107611800480060018024580048001441101720336930PAZAR MAH.DE¶òRMEN CAD.NO:70/2            KADòRLò     015508001336831452921453650000001459271575841576330000001642941760231760360000001760363531870191091830921909201
9359732302CELòL       GôZöBATIK     SEYFò       01017711011050020052004301100100291101720336930SANAYò ÄAR  35 SK    NO 54                YöRE¶òR     012800100901371418911160350000000000001547771288590000000000001741061480960000001741063532280881095720966409618
9361202379BAHADIR     SANDALLIO¶LU  BAHATTòN    13057611010100010007007801000103781101720337930SöMER M 106 S NO 15                       SEYHAN      011400100925511218071067880000000000001323961173440000000000001482791331790000001482793532550681078930794207917
9363011876ESRA        ÄALIûKAN      ALò         21027521010140050013010731050107671103315958930S.DEMòREL B. 146 S.  MAûUK A. K:13 N:39   SEYHAN      011200101497331410141458730000001620091536721583400000001804241726591770410000001770413531870191092070949409350
9363820413SERDAR      EKER          KAZIM       04097611011180010068000301040100611101715957930BURHANòYE MAH. SK:55 NO:22                CEYHAN      019600101368211327661389260000001494221453321515090000001683251641801703850000001703853511720191094510942409438
9364051335MAHòR YUSUF KILINÄ        VEDAT       21037711270140060008026327082700721101715957930SULTANSELòM M.       TAVUKLU G. NO:4      ûAHòNBEY    273002701264141400911379480000001383221518801497970000001561851695641675700000001675703511720691089310884208887
9364269667BURHAN      ûEN           EDòP        18037611560710040006020847090101421101720336930HAVUZLUBAHÄE MAH. 19 SOK. EVNO:6          SEYHAN      010300100823741060980936110000000000001155320000000000000000001296840000000000001155323551810981069760707607026
9365710902AYDIN       KIR           REMZò       15107511011590010065002501150101261101715957930PETROL OFòSò BAYò    ûARûAR CAD.          SAòMBEYLò   017400101262761205611218380000001381711324341337220000001560151502441515490000001502443516351581089220890508913
9369914644YöKSEL      ÄELEBò        KARòP       30107611620160010023005562013401371101715954930Y.BA¶LARI M.ERENLER SDO¶AN APT.NO:22/8    MERKEZ      232002300856751209521036080000000000001315360000000000000000001474110000000000001474113532551081080490793807993
9370970274SòBEL       ôCAL          MAHMUT      19027421340690110000510001160101011101724318930CUMHURòYET MAHALLESò KAPLAN SK EV Nô 21/A KOZAN       015100101345091060281183390000001452261167781290720000001613011329031451720000001452263552191971080370806208050
9372198202UYGUR       GöNER         NURò        03037611570230010056012680008001931101720334930RAHòMEHATUN MAHALLESòLòSESOKAK NO:43                  018508001037251265321198220000000000001366671299340000000000001518691451020000001518693516230381075670760107584
9372511738öNAL        TOKTOK        TAHòR       05097611000060100000000033080109375401214916930ûAKòRPAûA.M.48.S.N.7                      SEYHAN      010800101328301139481221660000001446131258191339930000001622881436251517340000001258193551661981088370890308870
9372730281ôZLEM       U¶URSES       ZòYA        22097621010100080039029401010100531101720338930HURMALI MH. 1.S NO:62                                 010600101250771418111350680000001390791558011490640000001600831767871700590000001700593511720191105021049310497
9374182219ÄA¶DAû      SARIGöL       DURSUNALò   04127611010000400004036001000100371101720334930DA¶LIO¶LU MAHALLESò  25 SOKAK NO:30 ADANA SEYHAN      010400101125631594261369560000001260091729161504240000001461771931511706260000001931513532430681100841011710101
9374586671YöCEL       DURMUû        BOZO        20057621440100120145000901000100371101720338930T.C. ZòRAAT BANKASI  OBALAR CD. ûUBESò    SEYHAN      010300101476201349411420390000001594311468241538860000001771481646501716570000001716573515430391088580891308885
9374692334NALAN       BESLEME       ûEFòK       23097621270220060014060127002700481101715954930EYDò BABA MAH.HALEPLòO¶LU SOK.NO:13/1     ûEHòTKAMòL  275002701274481120801177740000001381361227681284620000001541671388001444940000001227683552461281080160801608016
9375227514MUSTAFA     YA¶CI         ZòYATTòN    20077511010110040019021901010105071102515958930GAZòPAûA MAH. 619 SK. NO:10 KAT:4         SEYHAN      011400101333501523911451740000001465671661981586860000001663931869091789550000001789553512490391099131035510134
9375944435EMEL        ôZER          ALò         10107721011780025026010601170100611101715954930HAMZALI KôYö         YUMURTALIK           YUMURTALIK  016840101103911264441230480000001221261381341347600000001397281556681523290000001556683516110281088010876708784
9376348512ELòF        BAYRAM        VELò        01127521011440010046002001090102891101724314930KAZIM KARABEKòR MAH. 21 SôKAK NO:12       YöRE¶òR     012300101435341113961251970000001544361220341359670000001707891379921521230000001544363553412071081770797908078
9377187699MEHMET      DOPO¶LU       METòN       01097411010420010066000601040100371101720334930òSTòKLAL MAHALLESò 26SOKAK NO:97          SEYHAN      010800100901851051440994620000000000001146340000000000000000001288700000000000001146343553890581070320711807075
9378373677ARZU        BARUTÄU       VAHAP       27047621310800040042014231083101421101724315930Äò¶DEDE MAH SAHòL CADKIZIL SOK NO:3       SAMANDA¶    318003101366221121011238400000001463701220661336970000001609931370131484820000001336973571722491073110747407392
9380371348VEYSEL      TEMòZ         MESUT       07097511010110030022020001010102231101720335930T. ôZAL BUL. KARLIDA¶AP. A/BLOK 7.KAT N:14SEYHAN      011700100895521383991128230000000000001422691166910000000000001480751224930000001480753516230381028990290302901
9381150453MUSTAFA     AFûAR         CUMAALò     07017711011010010016003001100108231105815958930ATATöRK CADDESò      A BLOK NO:62/7       SEYHAN      010100101331731705061507050000001457601840701637800000001646402044161833930000001833933512520391094401017309806
9381948743ALò         EKER          MEHMET      01027711310460010041002431043100371101715956930AKTEPE FATòH MAH. DERVòûPAûA CAD. NO:210  HASSA       317103100970401351321181310000000000001445231274430000000000001586101414120000001586103532310581069250704306984
9382404853KADERGöL    KILINÄ        RESUL       17127521010430010008004001040100611101724315930HöRRòYET MAH..289 SôK. NO:3               CEYHAN      019600101187731065661106560000001288651165961207170000001440041316411358090000001165963571571181075690752307546
9412057157HALòME      IûIKALP       ORHAN       09077521010180050021038301010190042001632831000SöMER MAHAL ESò 152. SOKAK NO:6           SEYHAN      011400101365181064751196080000001470601168361300560000001628731323771457270000001470603571332471079060777107836
9412887973ZöBEYDE     YOLCU         REFòK       23027621540500010004000354005402895101528444940OZANLAR MAH.ARK  SK. NO. 1                ADAPAZARI   540505401310051065941187090000001418781172411294690000001581871332131456090000001172413571692381081550798608070
9413252125ûENOL       ûAHAN         VEYSEL      10027711450300310024006845034500211101715957940ûEHSòNAN MAH ALò KOÄ CD 1.SOK NO:3        ALAûEHòR    456004500923651390241151980000000000001496561259020000000000001656041419570000001656043513290781080810797408028
9413671564SELÄUK      KAV           MEHMET      27017711800000010049001280003441961101715954950RAHòME HATUN M 14.S  NO:130/1                         018508000852551190651012650000000000001288060000000000000000001434170000000000001288063552220181073030730607304
9415518855ôZLEM       YUMLU         YAHYA       14037721330120200012121633003306115201121434940KARADUVAR MAH.       1715 SK.NO:12        MERSòN      330203301263131086901171710000001398821222041307130000001602361424751510250000001611813554841091101771013610156
9416243403LöLöFER     KôZò¶         òHSAN       27037721011002610066003501100112851101733034950T.ô.BUL GöZELYALI MAHKISACIK APT NO:10/19 SEYHAN      011700101112581122921152450000001204931215861245100000001343471355281384080000001215863552461781069270697106949
9416497649MUSTAFA SAòTAVAN          MEHMET      07107611460260010017003380008001285101524314940DERVòûPAûA MAH.56.SOKNO:37                KADòRLò     015508000841551141141013040000000000001223680000000000000000001347500000000000001223683552220681065510619106371
9416606907YUSUF       KILIÄ         ZòYA        20127711190170010046002619011900111101715954940AKÄA KôYö                                 ALALA       196001900896431061440959260000000000001136390000000000000000001248810000000000001136393554570581055160562105568
9417219226AHMET       KARAMANLIO¶LU ûENEL       06027811091430010036003009140901551101724255940HöKöMET M KAZANDERE CNO:72                YENòPAZAR   093500901353301080041209050000001460761184411314970000001621961340971473850000001460763551782071080600782807944
9417267788ûöKRAN      ûUMRAO¶LU     MEHMET      10107721310720050235702731073105645201121434940ÄINAR MAH. 6/4.SOK.  NO:4 ERKOÄ APT D:6   BA¶CILAR    345603401185291020291107350000001316810000001238880000001514090000001436180000001534833571961191098640986609865
9417950915SERKAN      YILDIRIM      MEHMET CAN  05067711330870020071006033083301171101724254943DUATEPE MH.MòMARò SK.YAVUZLAR APT. KAT:3/5TARSUS      334403301319911153311245900000001403921236671329580000001529931361701455100000001329583571721991063000625206276
9419036132UFUK        ALTINOK       HòKMET      07037711011680010062000038030103611101715956940AYDINLAR MAH.        32.SK. NO:26         SEYHAN      000000101037761422321199140000000000001532401309320000000000001697521474590000001697523513680981082710825608263
9419413611SUZAN       YAZICI        AVNò        09037821530140040027011553085300171101732834940DADALO¶LU SK GöNÄòÄEKSòT B BLOK D/39      öMRANòYE    802673401207561094721130900000001304951191611228040000001451031336961373750000001191613571181581073040726707286
9419475862MEMDUHA     YöCE          SELAHATTòN  01117721011710010010000401000102231101715956940YENò BARAJ M. 54 S.  KEVSER APT. N:15 D:6 SEYHAN      011500101294771719261526310000001431401855961662970000001636362061001867970000002061003515310481102481025210250
9419586959ZöBEYDE     UÄAR          NAZMò       10097621800090010019010180008002415101528447940HARAZ MAH.ZORKUN CAD.ÄIK.SOK:8 EV NO:9    MERKEZ      018308000877631191741057080000000000001331881197620000000000001542091408440000001331883552850281105711051010541
9419720818òBRAHòM     GöNEû         YAûAR       15037611010260030010020201100100121101720336940SöMER MAH. 164 SOKAK M.ULUTAû APT. NO:49/4SEYHAN      000000100967061473861173070000000000001532421231520000000000001620271319210000001620273513290881043760439204384
9419914201FATMA GôKûENôZTöRK        AHMET       09087821270180010015005927012701451101715957940DE¶òRMòÄEM M. A.ÄOLAKO¶LU C. NO:23 DAòRA:5ûEHòTKAMòL  270902701331521265711342140000001464861399221475570000001664881599491675710000001675713511720191100011001310007
9421372262AYDIN       ZENGòNER      YUSUF       09077611011550010023002401150113415401214916940100.YIL TEKART SòT   123 BLOK KAT:1 NO:2  SEYHAN      013600100916861204941064520000000000001304351163490000000000001453481311940000001528043552341981073890745607422
9423252414MUSTAFA ô   EûME          HASAN       14047711031100010023000203002602635001915957940NUH KASABASI                              SòNCANLI    030900301317541271571293180000001448291401021423280000001644421595201618430000001716013511330291098060970909758
9423803209TU¶RUL      òNAL          YAHYA       26107611010480010062000501040108645401220817940ÄUKUROVA TARIM òûL.  MöDöRLö¶ö LOJMANLARI CEYHAN      019210100887251149051029310000000000001262920000000000000000001433720000000000001262923551660481085110854008526
9423934898MEHMET      GöLSOY        MEHMET      03067711270400040213007026042707863001114914940ZòYAPAûA MAH. 32 SOK.NO:22                SEYHAN      011400101076301312101153480000001209121445821286750000001408361646401486660000001445823516231381099621002909995
9425980605NòZAM       KILIÄ         òSMET       10017511300040010031001130003000825401214916940YENò DO¶AN MAH.      ELMALI SòT. 9/B NO:37MERKEZ      070700700919571174171076500000000000001306191207850000000000001504231404890000001603253551540181098010990209852
9427965611MUSA        ôZBAHTòYAR    NEDòM       24017711010110170027040301010101421101715957940HAVUZLU BAHÄE MH.    60 S0K. NO:17        SEYHAN      010300100917521483021183280000000000001620401320480000000000001826471526290000001826473511840781102771030410290
9427973208NURò        KURTBO¶ANO¶LU YAûAR       11017711330880040017045633080106615301614916950òKTòSAT BANKASI T.A.ûADANA ûUBESò         SEYHAN      011200101121621490271285160000001180821551851345550000001269621644221436130000001551853552970981044400461804529
9429281276ôZGöR ôNER  ôZ            FòKRET      04087811010190020003005980010100121101733036940100.YIL SòTELERò 243BLOK NO:1             SEYHAN      013600101325491264371329050000001436491375861440300000001603001543101607170000001375863551270481083250836208343
9431892714BUKET       BALSOY        NòHAT       07057721010170080030036801010100121101732836940Y. DôûEME MH. 36 SK. KAYALI4 APT. A BLOK  SEYHAN      010600101015311329921225630000000000001440431335890000000000001606201501280000001440433553770281082510828808270
9432966381MUSTAFA K   ZEYLò         ABDULKADòR  04067811010110020033006501010100371101732834940YEûòLEVLER MAHALLESò 54 SOKAK NO:31       SEYHAN      011800101266511282641298140000001369611387141401940000001524251543901557640000001387143551270981077320783807785
9433045899FEHMò       NAR           YUSUF       04107711010243060346032801020112851101715956940KARûIYAKA HAYDARO¶LU MAH.19.SK.NO:58      YöRE¶òR     012700101082761358361253340000001240831516461411420000001477941753601648550000001753603513170681118551185711856
9433268657MUSTAFA     AYDEMòR       OSMAN       01117611270860020032003927082701291101732836940GAZòANTEP CAD.HALK   LOJ.NO:6 KAT:3       YAVUZELò    279702701444081084521241530000001596021236601393540000001823921464721621550000001823923515790171113951140611401
9436207951MEHMET      CEBECò        MUSTAFA     27017611010150040002022580000108315401226668950EMEK MAH.14SOK.EMEK  APT.KAT 6.NO.19      SEYHAN      010800101316251085251156920000001407191179031249280000001543601319701387820000001179033571840681068210703306927
9436223726EMREHAN     ERTöRK        BEDRò       05127611011130020038006701000113581103315956940YURT M EVREN SòT C/1 BL KAT:9 NO:36       SEYHAN      011500101408351697441557390000001528731821711679710000001709292008111863200000001863203512521091090280932009174
9436557894FATMA       TAû           MEHMET      23017721800070010057000180000110415201121434940ûAHòN ôZBòLEN MH. 299SOK. E BLOK K. 4 NO 7CEYHAN      019400101117041065641103880000001244151192311230770000001434821382311421100000001516273552730191095330950009517
9437787001MERAL       ULUKULU       AHMET       01107621190860050044012719081901995101514795940ûENYURT M OSMANGAZò C37.SOKAK NO:14       OSMANCIK    195001901267851056571146110000001397491185011275150000001591951377661468710000001185013552852081097230963309678
9437822635YASEMòN     ÄòFTÄò        SADRETTòN   29107721010460010075002901040109785501712925940òSTòKLALMH.UMUTEVLER.414/21KAT.4          CEYHAN      019600101385361078201208560000001523351215891346400000001730341422431553160000001656543515430291103491032710338
9440882692SULTAN      KURTMAN       NAMIK       22047721010040010004004501000103611101715958940YENò MAH.ÄAY SOK.4   NO:2                 DEVREK      678006700951891199281092130000000000001300921193890000000000001453391346520000001300923551810181076400762307632
9441193888SABòT       ARSLAN        ôMER        17017511400290010004001101000100371101733036941KURTULUû MAH. 9 SOK. ALòR. E. AP. NO:19/14SEYHAN      010300101252991127231203360000001365891241291316840000001535241412391487060000001241293571182481084670855508511
9441344511ABDULLAH    AÄAR          HALòL       01017511630540010019011963052701941101715956940ÄA¶LAYAN M. TAYYAR   DELEN S. NO:16       ûEHòTKAMòL  275002701035141410541250850000000000001519241358690000000000001682281520440000001682283513290281080230815208088
9442860211HARUN       DURMUû        ABDULLAH    15037711800440010061005980048001441101715956940TC ZòRAAT BANK.      ETòLER BRY. BNK. ûB. ETòLER      806008001297991063261161950000001400531166541264860000001554351321451419230000001166543571451281076910774607718
9442924652SUPHò       ÄòÄEKTAKAN    HAYATò      24047711010230100145039601020112851101715957950SEYHAN MH HASAN TU¶ALCAD NO:198           YöRE¶òR     012700100915631285361116590000000000001370271201170000000000001497641328050000001497643516350681063190636806344
9443013878TAMER       YILMAZ        öNAL        30067711091130030011021834083425021101715958940BELEDòYE BLOK. A/23  BLOK DA:1 TOZKOPARAN GöNGôREN    340103401252371167431226820000001356401271951331090000001512451428721487510000001331093571722391078020783907821
9443189496KEREM       DOYAN         MURAT       01097711520310040005024252035204685201121438940KURTULUû M H.        REû DòYE  AD.NO:246/4FATSA       524005201308041065501182480000001426101183091300310000001603201359481477050000001565423552730891088550881908837
9443676291SELDA       TELòS         òZZET       20037721422860020020008906210604931101715955940ûEHòTLòK M.A.MENDERESSòTESò NO:39/5       POLATLI     069000601186331076551122340000001231671122621168040000001299681191721236600000001122623572251881034010345503428
9444185978EVREN       ARIN          MEHMET ALò  01107711010150060008056201010109455401214917940MEYDAN MAHALLESò 30 SOK. NO:4             SEYHAN      010700101040471340001230810000000000001472501363030000000000001671261561360000001472503532550981098950993809917
9445075609EMòNE       ÄAMSARI       òBRAHòM     22057721080040010030001327068002995201121434940AKIN TEKSTòL ÄIRPICI VELòEFENDò YOLU NO:49BAKIRKôY    340203401066011128261127380000001187211249331248520000001369021430931430220000001521073552730191090900908009085
9446722154ATòLLA      A¶ZIDELò      HACI DEDE   01017511010420020022019901040705785201121436930EKòNYAZIKôYö                              CEYHAN      019430101393841073361213520000001446601125151265800000001525741202841344210000001446603551781971039570388403921
9447291721ôZAY        CENGòZ        òBRAHòM     01017721011130010013001400000101011101715955940TUFANPAûA/MAH        SEDòR/SOK/NO/5                   015200101266361058481137320000001370171163281241630000001525891320481398090000001163283571571681077860786007823
9447742674MURAT       HòZAN         YAûAR       08037511000070010013002001000110745201121436930YEûòLYUVA MH.6 SK    NO:49                SEYHAN      000000101320711079521191770000001427231185241297890000001587011343821457070000001536663552730391079890792907959
9449717379MöNòRE      KANIGöR       KEMAL       06097721062710010120002906270603551101724255940ARAS SOKAK KANIGöR   APT. NO:141/9        YENòMAHALLE 061800601285411058231139360000001402761175641256740000001578791351761432820000001175643571692081088010880608804
9451507292ERDAL       ûAMPòYON      MUHòTTòN    03017811031250020029008503124205131101715958940DEREÄòNE KAS.        BAHÄE SOK NO:8       SULTANDA¶I  039100300943831403691172270000000000001500841269580000000000001646561415560000001646563516111181073110728607299
9453062864FERHAT      POLAT         ABDULGAFUR  27127711310450030021013431004214125610227555940TARIM òLÄE MöDöRLö¶ö                      TöRKO¶LU    468004601225781426001297130000001280321483141352970000001362121568841436720000001483143516230381040900428504188
9453548597TUNA        DEMòR         HòKMET      01077721330080010071000600003300691101724258940EVREN MAH. 3.SOK.    NO:1                 KARACAòLYAS 332653301592911496381522600000001710491615371640890000001886871793871818330000001818333512521291088190892508872
9454779157ôMER        YILMAZ        MEHMET      14107611071130020050006007110701311101715958941OYMAPINAR KôYö                            MANAVGAT    076000700944301139321081750852250000001248791191370000000000001412991355800000001248793552460181082330821008222
9455515526ARZU        KARABAû       òBRAHòM     29067721010200030010021634180110255201121434940EMNòYET MöD.MUHAREBE ELKT.ûB.MöD.         SEYHAN      013300101172971042201105080000001292110000001223880000001470810000001402070000001491173571960191089350888408910
9456144179òBRAHòM C   YILMAZ        HASAN       30077611270480010030000227040109455401214914940YENòYURTM 103.S N:32                      SEYHAN      011600101247561188781211860000001337061279701302070000001471321416091437390000001484283551541981067130681906766
9456279184N SACòDE    ADANIR        HALòL       23037721310660030027023431053101671101724314940DEREBAHÄE MH. SARAY  SK. NO:13            BELEN       313503101150241077501126950000001237491164611214130000001368371295271344900000001164613572251581065440653306539
9457755071JöLYEN      AKGöÄ         MEHMET      051277214601007000660014460131010111017243179402992 ADA L BLOK KAT:2/3                   HALKKENT    330503301253951122961186250000001347761218911281130000001488481362851423460000001218913552222281070360719707116
9461458504TARIK       KASAPO¶ULLARI RIDVAN      30097711660230030032025106010100371101733037940òSTòKLAL MAH. 30 SOK. EV NO:20            SEYHAN      010800101399821435541459800000001552741588631612810000001782121818281842320000001842323512520191114691148211476
9461520339BöLENT      POLAT         NEVZAT      03037811010430010054001401048002335401214918940DA¶ISTAN KôYö                             CEYHAN      019200101293251248241288930000001410991366941407150000001587601544991584480000001407153552582291088310890308867
9461683591SEVDA       TEZCAN        MöRSEL      23017621341130010025002460026000741101724254940GöRSEL MH.ALAYBEY SOK.NO:36                           803603401330141070411190620000001437811178391298450000001599321340361460190000001437813571331871080750809908087
9462500347SöLEYMAN    SARI          TAHòR       30037711330810010030002433083310731103332834953BAHûòû MH.GAZò SK.NO:21 HUZURKENT         TARSUS      335403301249761104101176150000001352891210651280990000001507591370471438250000001210653571180781077350799107863
9462878401SAADET      APAYDIN       MòRZA       01017521210250020000007101000110255201121436943BARIû MAH.57SK.NO:12                      SEYHAN      011900101284711089451177390000001428561233031321100000001644331448391536670000001644453554840491107881076810778
9463096446CEM         KARAGôL       ALòERDAL    03087711520060010079000152005200871101733036940SARAY MAH.  LANARASI SOK. NO:52/1         MERKEZ      521005201287321152791221160000001392011255751324990000001549061410201480730000001255753571690181078520772207787
9463311157AHMET       BULUT         OSMAN       10027811011420020046003401090108565401227976940P.T.T EVLERò MAH. 85.SOK. NO:7            YöRE¶òR     012400101248361063441151510000001369871185111273100000001552141367621455490000001185113571212381091130912509119
9463747466BöLENT      AVCU          òSMAòL      23057711010990010019004401090100371101715956940MAHFESI¶MAZ M.67 SOK.ATACAN SòT.B BLK.N.11SEYHAN      011700101308081486881404850000001415801595901513220000001577391759431675780000001675783532670491080790817608128
9464773306AYÄA        AÄIKGôZ       HIKMET      01017721011140020026008101110101011101724256940CUMHURòYET/M ZöBEYDE HANIM/C/MUTLUMERCAN/AKOZAN       015100101328751081301180350000001442041195411294050000001611971366581464600000001442043552191171084960855808527
9464773318AYTEN       AYTEKòN       NURò        22127621600050010044001660000625755501712926940ûEHòT KUBòLAY MAH.   126. S. NO:19        YöKSELTEPE  060200601289341101691187890000001422731234401320930000001622821433471520500000001234403552222381100040995309978
9465264114HöLYA       AY            FUAT        21117721010260010083000401020100531101715957940KAZIM KARABEKòR MAH. 8.SOKAK NO:5         YöRE¶òR     012300101022231214911162330000000000001343201290480000000000001535641482710000001535643516351681096010962209611
9465599164SERKAN      DEMòR         òBRAHòM     21127511360470020109003531053104345401214916940òSDEMòR LOJMANLARI   K.69:5/10            òSKENDERUN  313193101160561055141115930000001211391106691167120000001287631184011243900000001222673571181181038120386603839
9466948008MUSTAFA     ASLANYöREK    SABRò       14037711310050020020006331003101751101715956940KöTAHYA CAD. KIRMIZI TOPRAK MAH. NO 90    ESKòûEHòR   310703101053061293491162360000001154821396071264530000001307471549951417790000001549953516111481076320769407663
9468917713RAHûAN      BöYöKHIZ      NURETTòN    26087721010110010140000201010100371101715955940MAHFESI¶MAZMH.1863SK.DELòBALTAST.CBLK:5N20ADANA SEYHAN011700101259811054781150240000001367261163531258340000001528441326661420500000001163533571692181080590815608108
9469108788FòKRET      ALBAYRAK      MöMòN       14127411580660013922004658060603631101732834940SUADòYE.C.BEYAZKôY.S.43/3                 YENòMAHALLE 061800601138621068191102660000001235151165661199660000001379951311871345170000001165663571690881072400731007275
9469359304ZEYNEL      DO¶AN         SEYFEDDòN   02027711310570030003026131053100941101733037940GöLTEPE MAH. 407 SOK.NO:46                òSKENDERUN  312003100927481527821209400000000000001627891308340000000000001777991456750000001627893513681781073360750507421
9469538164MUSTAFA     AKTAû         ADEM        05027711011390010057000301130108315401215115940KAMIûLI NAHòYESò EV  NO: 13               POZANTI     014800101316081067281177220000001424741177561286690000001587741342991450910000001425703554961681081500827108211
9469726248òLKER       ERGöN         MAHMUT      01017811330080020003012233003300691101715957940TURGUT REòS M. CENGòZTOPEL C. 144 S. 99/19MERKEZ      330103301224631566951392460000001335911679851504550000001502831849201672690000001849203531631581083460846808407
9470578253ZEHRA       TOKGôZ        BòLAL       01017421380620010036002238003803055001924255940YEREGEÄEN KôYö       PAZARôREN            PINARBAûI   387303801070301104561110550000001176621206191214530000001336111358651370500000001206193552850881079740762307799
9470929702öMRAN       TEKER         FòKRET      18037821730110020006009273010110415201121435940EMEK MAH. 137 SOKAK  EV NO:99             CEYHAN      019300101386761118851258620000001471471202551342820000001598541328091469130000001471473551780671063530627706315
9472639564HALòM       ôZTEPE        ZEKò        01097711010460010039002601040100611101732834940BöYöK KIRIM MAH. 21  SOK. NO: 1/1         CEYHAN      019600100949111066421029430000000000001174160000000000000000001335770000000000001174163551810681079940808108037
9472701293AYHAN       KARACA        ALò         0102771121022001001000452102011285110173303494019 MAYIS MAH.ÄUKUROVACAD.EVNO/173         YöRE¶òR     013100100954061372351177410000000000001488881293660000000000001663671468040000001488883553532381086980873908719
9473167937MUSTAFA     KAYA          òDRòS       28027811650770000000000001000100371101732834940YEûòLOBA MAH.SABANCI SòTESò D/BLOK KAT:2/6SEYHAN      011000101418031139251266700000001536371258621385560000001713891437681563850000001536373553411971088760895308914
9473632911AYZòN       YERMAN        CòHAT       14037721330835030006023233003300691101724254940MESUDòYE M. 31 SOKAK KAYNAK AP. NO:119 1/2MERSòN      330503301263571080271186420000001371701190121295410000001533891354911458900000001190123552851081081100823908174
9473937403òSAK        DòKòCòAûIK    ABDULLAH    10057811020103010071000302012701611101733036940GAZòLER CAD YENòÄERò SOK/30/A òSHAK A.û   ûAHòNBEY    270102701317731134891221080000001411851230651316020000001553041374301458440000001411853571331471070590718207121
9475038178AYNUR       FòDAN         NUSRET      11027821230820020046006323080100611101715957940CUMHURòYET MAH. HòLALAPT. B/BLOK NO:6     CEYHAN      019600101202081568671356810000001302721670591458090000001453681823471610010000001823473511841781075480764407596
9475202829MEHMET EMòN YILMAZ        MöSLöM      09017711630250010094000463026300281101715955940KURTULUû MAH.URFA    KAPISI GARAJ òÄò NO:8BòRECòK     634006301089831415971268210000001180881509511360500000001317451649821498950000001649823513170881068290701606922
9475542958NAZòFE      YöCEDAL       ALò         20107721310920020056008131093104675501731195940ESENTEPE MAH.174.SOK.NO:55                ANTAKYA     310203101305331044721163650000001429450000001287030000001615630000001472090000001708723554180971093090919809253
9475655431AYTAÄ       TATLIO¶LU     NEDòM       21077411310070020006016331003100291101724316941HASTANE CAD. TöLAY   APT. B BLOK 1/5      ANTAKYA     311003101299641130871185151237661390271220251275151328291526211354321410161464231275153511180601067970670406750
9476526877AYSEN       KöKöRT        ADNAN       01057721010100050013017901010100291101715954940SöMER MAH.142 SOKAK  EV NO:4 KAT:2        SEYHAN      011400100953041109881048190000000000001214420000000000000000001371220000000000001214423552461081077100784007775
9478537995AHMET       ALACA         HöSEYòN     01017711800290030203006480018002825301614914950BO¶AZòÄò MAHALLESò   ÄòRKòNLER SOKAK NO:33DöZòÄò      016008000969641115811031880000000000001218960000000000000000001373690000000000001451053552340181075500773607643
9478801555AYTEN       KAYALAR       HASAN       16057521310040020031009931003101831101732834940HARBòYE M. ERLER CAD. 6. SOK. NO:9        ANTAKYA     310803101439791108221257250000001540931209841358630000001692651362271510710000001540933553411971075860762207604
9479572779SAFURE      BAûKEÄE       AHMET       30047621800450020022004680048001441101724254940ANDIRIN CAD.BAKKAL   ALò KöÄöKKAVRUK      KADòRLò     000008001371651059461212680000001483211171631324550000001650541339901492350000001483213552191671083670841308390
9479798636ADEM        BAûAR         ZEKò        25017711310200020175004131023102231101715957940KUZUCULU KASB.ÄARûISIGENÄLòK TERZòHANESò  DôRTYOL     316303100976101213621073440000000000001324191183770000000000001490051349270000001490053516230681082570829308275
9481941163SALòH       ûEKER         MEHMET      01117611500100060053015950015001111101715955940TATLARòN KASABASI    BALLIK MAHALLESò     ACIGôL      502305000880001073480966000000000000001222300000000000000000001445530000000000001222303552220381111581116211160
9484260971GôNöL       PöSKöLLöO¶LU  ADòL        10047521800400020133002780046802815601317465940TEDAû òûLETME MöD.                        KADòRLò     015508001238021343551326020000001316771422221404730000001434911540231522800000001422223554211881059070590005903
9485565051GôKHAN      KESKòN        VEDAT       12087711330820070015047333083301171101715956940KIZILMURAT MAH. 35   SOKAK NO:24          TARSUS      334003300937981368771167880000000000001493661292910000000000001680991480470000001680993513680781093890936609378
9485753858òNCò        ARSLAN        BAHATTòN    14067721390180020081004234003408751101715954940BEûYOL MAH*LLESò ESKòHALKALI CAD. NO:10   SEFAKôY     346303401167701224821186610000001282661338411300890000001455101508801472300000001338413571692281086220851908571
9485826648KAMòL       ÄòLòNGòR      GöRBöZ      23077611330130030044021033013300111101733038940ESENTEPE M. SULTAN   ALAADDòN C. NO:7     ANAMUR      336403301222851068981166840000001320611165721264090000001467251310831409970000001165723572132281073320725607294
9486022824DENòZ       EKER          MUSTAFA     24057711010440010109000101040110745201121434940DUMLUPINAR MH. 158.SKNO:8                 SEYHAN      010700101243721154311218060000001360971270551334810000001536851444921509930000001597493554840991087940871808756
9486520339CEM         TöRKYILMAZ    GAZò ORHAN  17107611581440010039001958145802211101715956940SELEVATTEPE SòTE LOJ.NO:23/4              DòVRò¶ò     583305801536701750611608880000001696701910611768880000001936702150612008880000002150613515310181120001200012000
9486789819MEHMET      YALÄIN        òSMET       01067411790229010044000279027900691101715958940POLATBEY KôYö                             POLATELò    790007901000631367011215100000000000001497651345720000000000001693601541660000001693603513170281097960979809797
9487625492FATòH       DEMòRCòO¶LU   MUSTAFA     01037811460200000026005880008001441101715954943ORMAN òûLETME        MöDöRLö¶ö            KADòRLò     015508001033331170311144830826170000001275961250130000000000001434431408070000001275963552611681078710792407897
9489725233DENòZ       ÄA¶LAR        DO¶AN       03017711330040040003031733003300691101715956940E¶RòÄAM MH. 2292 SK. NO:8                 YENòûEHòR   331603301196011249051233260000001289521344771327880000001429791488361469800000001488363516230481070130717907096
9490923884ERSAN       SIRLIBAû      BAHRò       09017711010230090133038401000112851101715956940SEYHAN MAH. HASAN    TU¶AL CAD. NO:78     YöRE¶òR     012500101243611403071307760000001289551449431353910000001358461518981423130000001518983516350881034450347703461
9492061465MAHMUT      AVCI          ALò         09047711020650010038000401010100371101715954940DUMLUPINAR MAHALLESò 149 SOKAK NO:12      SEYHAN      010700100900151396231150580000000000001503391257070000000000001664131416810000001503393553532081079370803707987
9493345235SöLEYMAN    KARATAû       YUSUF       01057711330870020023006833083390032001632831000ESKòôMERLò M.òSTòKLALCD.ôZKUÄUK APT.12/3  TARSUS      334003301187521305441250780000001306631422081368550000001485291597031545200000001422083516231181089330874808833
9494523594MUSTAFA     EûLò          MUZAFFER    09097611010430010042001401040113415401214917940TOROS MAH.46 SK.     ûAHòN APT.K:3 NO:16  SEYHAN      011800100892401112101008400000000000001220370000000000000000001382780000000000001463983552340381080630812008092
9495104372ENVER       KARLIK        òBRAHòM     01037811440140010069000244010100371101715954940YENòDO¶AN MH 38.SOKAKNO:27                YöRE¶òR     012600100986561415431221980000000000001514891320670000000000001664081468710000001514893552970981073440746007402
9496879938RAûòT       NEMNEZò       SADIK       14097511310000020028008731003104265401215114940KIûLASARAY MH.2. ûUBESK.SABRòYE AP.NO:10/4ANTAKYA     310703101039891070911052280000000000001183301164260000000000001351901332230000001436203554330681083670843008399
9511411915HöSEYòN B   HASTöRK       MESUT       27057611800410090013059301063100781101732835950TEKEL SòGARA FAB LOJ NO:15                SEYHAN      013300101280861158081219520000001384161261191322720000001539111415851477530000001477533532670991077470773307740
9512404113YASòN       ÄALIûKAN      SEYFULLAH   02037411800070010003000646028002745601323154950RAHòMEHATUN MAHALLESò36 SOK NO:7                      018508000949471050811031960000000000001142400000000000000000001279790000000000001142403572250181070660686906968
9512904602SELAHATTòN  BAYNAL        HALòS       01087911230950010059001201100102721101724254950SELAHATTòN EYYöBò    MAHALLESò 59 SOK.NO:3YöRE¶òR     012400100941511058010986040000000000001160480000000000000000001314180000000000001160483553890581075950768507640
9513316917YELòZ       òZBAL         MEHMET R    13017921010160110025071101010100531101715956950CEMALPAûA M. 277 S.  NO:5 ôZDEMòR APT.    SEYHAN      011200101304481582461464150000001449111726731608600000001666051943151825280000001943153531751281108471082110834
9513385671GöNEû       ôZTöRK        FòKRò       22047921061275010055000806120604931101724254950CUMHURIYET MAH. òNôNö CAD. BOZAR AP. 14/23POLATLI     069000601262871059941139110000001369791169031247110000001530171332661409120000001169033572131881080190818108100
9513672028SEZEN       ARIO¶LU       HòKMET      27117721800480010219001631057900115002732834953BURHANòYE M. 328 S.  NO:37/1              CEYHAN      019600101421891070621239071302281567481215781384451447871785871433531602511666261895063515790271109191088710903
9513825615DöCANE      HIZLI         HALòL       26097811010710040014019201110109455401214916950YURT MAHALLESò       113.SK.NO:14         SEYHAN      011600101201531093381131870000001250591143031181220000001324181217501255260000001254743571180681036790372403702
9513898514SEFER       TAû           YUNUS       04057711470360020022003547034700121101715956950HABUR VET. KLòNò¶ò   KARACADA¶ CAD. NO:35 VòRANûEHòR  637006300831071093980976310000000000001167680000000000000000001278230000000000001167683571570981054960552805512
9514060688òBRAHòM ETEMDEHMEN        SEYFò       24017811010149030032005301010100121101715954950T.ôZAL BL.ôZCOûKUN AP.C BLOK KT:11/22ADANASEYHAN      011700100897371263371069290000000000001366301171980000000000001520691326020000001520693516350381076850771907702
9514143943BöLENT      ERDEM         HASAN       16047811700200020050005444003300111101715956950GöZELYURT MAH. YENò  SARAY KOOP. NO:A/3   ANAMUR      336403301391281276751334160000001539161424361481910000001760991645771703530000001703533531871491110911107111081
9514642316YöKSEL      SA¶           ûAKòR       02107821460410110129027046044600331101724254950ûARAMPOL C. öÄGEN M. TAMPON APT. NO:10                070400701454561131681286520000001591751268921423730000001797531474771629550000001797533511690771102891029310291
9514971867TURHAN      BAûIBöYöK     FAHRò       05107611460231010082001246020100291101715954950MòTHAT PAûA MAH.130  SOKAK NO:20          SEYHAN      011800100918051485381185800000000000001602731302910000000000001778761478570000001778763531510681087650880108783
9515128838ALò         SARI          OSMAN       10047611381100280065004138113803955101528444950KòRAZLI KôYö                              YAHYALI     385003801425551087131235050000001573421234541382690000001795221455661604150000001906123515160571110901105611073
9515240146ALò         ELMAS         LAMò        10047711310800080036001231083101421101715954950YENò MAHALLE ESKò PTTCADDESò NO:58        SAMANDA¶    318003101049981494521291410000000000001593931389750000000000001743061537270000001593933553651981072950745607376
9515988966ôZLEM       ALPER         ALAETTòN    31107721740120010056000306220606221101732838950CUMHURòYET MAH.      CAMò SOK.NO/11       NALLIHAN    069220601412361070751216270000001536411193111339480000001722501376651524290000001536413553411971093040917709240
9516475969SöREYYA     BòÄER         AHMET       09017821010460020015009801048002995201121434950ATATöRK CAD. RAUFBEY MAH. 52 SOK .NO:24               018208001233251055601124990000001323371145481214990000001458561280301350000000001417503571962491067590674106750
9516845964GôNöL N     KIRAL         SEDAT       24107921011110080011022801110101011101715956950MAHMUTLU MAH. SEHLòK SOK. NO:9            KOZAN       015300101047041240601160580000000000001353931273430000000000001523931442710000001523933532550781084280850008464
9517256057CEMòL       ERKARA        AHMET       28087711800060020040004680008002251101732834950ATATöRK CAD. NO:216                       MERKEZ      018408001265141087341155200000001367861191561258670000001521941347891413880000001191563571690681077040781707760
9517410101KADòR       DUYGU         EYYUP       0404791166004001003800316600660096110171595895065/2 SOKAK NO:11     NURòPAûA MAH.        ZEYTòNBURNU 000003400872991282611078740000000000001399841195700000000000001575701371130000001575703532311681087510879308772
9517568544HAKAN       ÄòMEN         SELAHATTòN  09037811800130010045001280018002825301614914960MAREûAL FEVZò ÄAKMAK MAH. 40 SOKAK NO:36              018408000924531376991168260000000000001486161276320000000000001649911438410000001731783552341581080210818708104
9517586478PòRAHMET    KORKMAZ       ABòDòN      03037811440500750041000544004400911101715954950ESKò HALEP CAD.  L   DEMòRHAN GIDA NO:91  MERKEZ  L   441004400874821265081069820000000000001365001169450000000000001514871318900000001514873532551881074510749407472
9517752659CEM         TEMELLò       ALAATTòN    25047711280230020010013128002800271101732834950òHSANòYE MAH.        GöNER SOK. NO:17     BULANCAK    283002800994611314121163750000000000001408981259700000000000001551271403630000001408983551930781072780711507196
9518050742òBRAHòM     ADIYAMAN      òSMET       13037811800490010041000680048001441101715956950ûEHòT HALòS ûòûMAN M.100. SOK. NO:41      KADòRLò     015508001208901599321418780000001363081753581573000000001594361984971804330000001804333512491891115641156911567
9518347068YELDA       DòLûENER      ôZLER       01017721350480050017035235013506681104132838950SöMER MAH. 6.DURAK   49 SOK. NO:9         SEYHAN      011500101468621134801290920000001593601257941414980000001781071442651601070000001601073515430591093740923609305
9518731202EYYöP       TOPRAK        HALòL       01017811630080010023000663006304581101715954950òPEKYOL MAH.BARBAROS SOK.SABIR APT NO:25/6IPEKYOL     630506300881891322691087670000000000001433891197760000000000001600701362900000001600703513681181081740834008257
9519317192RAHûAN      GôREN         MUHARREM    02067621460180010171000846014600331101715954950ZòYA PAûA BULVARI    DòVAN APT. NO:10/5   SEYHAN      011300101078041388691266020000001200311511041388330000001383731694571571800000001694573513170381091710917609173
9521727903òLYAS       ôZBòLEN       NòZAMETTòN  17107811010440020103003801040110415201111076950MòTHAT PAûA MAH.203SKNO:28                CEYHAN      019600101128751083931121810000001265841220881258830000001471471426311464360000001220883551810881102821027110277
9521752388HATòCE      ERÄOBAN       MUSTAFA     03047421010170060005047502010111145604619514950ûAKòRPAûA ONUR MH.   SOK:11 NO:4          SEYHAN      011600101413481239101334060000001529351353271449080000001703151524531621610000001610163553531981086900856308626
9522049479EDA         SANDALLIO¶LU  KEMALETTòN  29117821010100500003041601010100121101715956950100.YIL KADòRBEYO¶LU 200.BLOK 3/6 ADANA   SEYHAN      013600101295681396711364630000001416031517391485140000001596571698401665920000001665923532820291090270905109039
9522337147ARMAN       DAû           AHMET       21037711330800110028079433083301171101715956950YEûòL MAHALLE        921 SOKAK NO:24      TARSUS      334503301303371414111337600000001440691551201474800000001646671756841680610000001680613532670891102991028210290
9522871203MEHMET      ûENER         MUSTAFA     01127711330850010032002891003302881104115956950ANIT M. ATATöRK CD.  GöNDO¶DU ST. A BL NO3TARSUS      334203301014531300611166340000000000001403381267430000000000001557531419060000001557533516350681074560770707582
9523180541FETHòYE     ÄòFÄò         ORHAN       15047821666613030032006034006604695501716634950KALE M. 211.S. MALòYE LOJMANI KAT/3 NO:6  FòNòKE      077400701185731013661080420000001343940000001238650000001581270000001476000000001699933554180571118661186911867
9523514217HòLMò       ûAN           òDRòS       15087611010146040005036401010113415401214916950SöMER MAH 52 SK NO:26                     SEYHAN      011400101152511104901131320000001264921218721244440000001433541389461414110000001474833551540781084310853708484
9523930533ASòYE       TOPCU         CAHòT       20077721011140010149001401110101011101715956950TUFANPAûA MAH.       MUTLU SOKAK EV/NO:31 KOZAN       015200101071491333441231590000001129501391891289820000001216511479571377170000001391893551931981043510438404367
9524079982öNAL        AYDIN         MUHARREM    15037711780440010009008978047800575401214916950DöZ MAH ORTA SOKAK   NO:10                SAFRANBOLU  786007801048371066071013920000000000001197810000000000000000001395430000000000001494243551540281098020988109841
9524380885CEVAT GôKHANKARABAY       ûEMSETTòN   0110781131046001007900030100310086110171595495015 KASIM MH.51 NOLU  SOKAK NO:50          HASSA       317003100940261293071134620000000000001404081245970000000000001570591413010000001570593516231281083780832508352
9526933201FATòH KADòR DòNÄKAN       ABDULLAH    25057911010120110007066601000100371101715957950YEûòLEVLER M. 925/3 S. NO:3               SEYHAN      011900101148721388711258270000001293401533551403030000001510421750821620170000001750823513680281108511086310857
9527623418SUNA        AK            CEMòL       10027721550130010050000755015503815101524318953GöLTEPE MAHALLESò ARASOKAK NO:5           ALAÄAM      558005501231411073121135760000001348741190311253020000001524751366111428920000001190313552851881088000879008795
9527820304òSMET       GöRAY         FETHI       01097611010260010086003701020100121101732834950NECòP FAZIL BUL.GöNEûA.BLOK K:1 N:3       Y ûòLYURT   011500100885041336841111720000000000001426381200980000000000001560701334870000001426383516230381066730671606694
9530338337MEHMET ALò  ORHAN         òSA         14087511011730010116000601170101421101715956950DA¶LIO¶LU SA¶LIKOCA¶ILOJMANI KAT:4 NO:4   SEYHAN      010400100945321350231158580000000000001458681266990000000000001621361429600000001621363532310781081270813408130
9530511686MAHòR       KUNDAKÄI      MUSTUK      01077711800030030048013580008002995201121434950KôYYERò KôYö                              MERKEZ      018208001294931109651199990000001416851231441321840000001599731414121504620000001596013552730791091440913409139
9531393853òSMAòL      COûKUN        ALò         16077911800080010017003533018002335401214914950KURTULUû MAH. 122 SK.NO:8                             018408001378371132681250020000001494161249471366310000001667841424661540740000001512253552342381086840875908722
9532055541ERSòN       DO¶AN         EROL        25037811330800010030000533083301171101732836950ATALAR MAH.          ATATöRK CAD. NO:27   YENòCE      338003301213771062481120740000001270081118551176930000001354551202661261220000001118553551812081042230420504214
9532850261SEMòH       TEKòN         HASAN       15117811010000020031009401000109455401214915950T.ôZAL BUL KURDAK APTKAT:3 DAòRE:5        SEYHAN      011700101288561072371168890000001341831126151222420000001421741206821302710000001247163571180281039950403404014
9533176599SELBòHAN    ESETEKòN      HöSEYòN     14037821630900010023001801000103781101724254950SöMER MAH. 33 SOK.   MUTLULAR APT. NO:12  SEYHAN      011400101381851234311293740000001476241328951388250000001617831470901530030000001388253552582391070790709807089
9533325634MEHMET      COûKUN        HöSEYòN     21047811011140040025020101090101011101715955950T.C. ZòRAAT BANKASI  MöD. MUAVòNò ELòYLE              802018001041601456801297950000000000001590901431780000000000001792051632530000001792053531631781100171005710037
9534809379MERYEM      KURTARAN      ALò NURò    01017621011160030232006601110103531101732834950TUFANPAûA MAH. LòSE  SOKAK EV NO:47       KOZAN       015100101378191114711242350000001468331206731333430000001603551344771470060000001468333551782071067610690206831
9536388348VEDAT       VUR           RECAò       28037811010130030004026301000103781101715954950YEûòLYURT M. 99 S.N:4SASA APT. B/BLOK     SEYHAN      011500101018461344071210610000000000001431671298070000000000001563061429270000001431673551931681065490657006560
9537524118MUSTAFA     ULUKUS        MEHMET HAY  07107711270600420060000627060604771101732836950DUTLU KôYö                                NòZòP       277002701293101075621170540000001399281180211275930000001558561337101434010000001180213571211781079640784407904
9537718178ESRA        YILDIRIM      YUSUF       10097721010210020000000001020101421101724256950KENANEVREN M.ATAKENT ST.3 D BL.KAT 4 NO.20SEYHAN      011700101380031097181213410000001477601194861311040000001623971341381457480000001477603551782071073180732607322
9538060271SEMRA       YAVUZ         AHMET       06037821290800320070010328062800761101732834950BOZCAALò MAHALLESò   MUHTARLI¶I           GôRELE      288002801272651086771166690000001394541208251288380000001577381390481470910000001208253571211981091420911109126
9538479634ôZKAN       KAYA          ûAKòR       01038011620370010059000562033409481101715956950YEûòL YURT MAH.594/8 SOK.NO:3/3           SEYHAN      011800100909171239101078390000000000001387621227120000000000001610391450210000001610393513680581111701113911155
9538792498NEJDET      DEMòR         MEHMET      01017711800070010112001080008001931101724256950ÄONA KôYö OSMANòYE                        MERKEZ      018208001085331051871066870000001197411164321179130000001365531332991347530000001164323571690481084060843408420
9539462446òLHAN       SôZDòNLER     AHMET       18037711010200040007019401040106295301619875950MòTHAT PAûA MAHALLESò92 SOK NO:41/43      CEYHAN      019200100878751308541088710000000000001357951137430000000000001432061210520000001469123552610381036030370603654
9540391638TAMER       KARA          MEHMET      04077811010010010118000901110112851101733034950SELA HTTòN.EYYUBò.MAH143.SOK.EV.NO.7.     YöRE¶òR     012500101138171229471234550000001254131345811350700000001428071520331524930000001345813554452281086970872608711
9540408794KADòR       BAYTEMòR      MEHMET ALò  12037811330410050003024340033300281101715956950ARPAÄBAHûòû BELEDòYE FAZòLET ST.E BL.4/7  ERDEMLò     337403301445491649651516700000001575451779581646640000001770391974471841560000001974473532430881097470974509746
9540759735CANER NòYAZòKARACAN       HALòL       27097811010180010158002201010100121101732834950ALòDEDE MAH. 2 SOKAK NO:34                SEYHAN      010200101036661099331124330000000000001216181241010000000000001391471416030000001216183552460681087380876408751
9541224218ELòF        BöYöKAûIK     FUAT        22077921310040080009051831003101831101732834950HARBòYE.MAH.ÄAMLIK.CDNO:5                 ANTAKYA     310803101356791078571216590000001467111188251326590000001632601352781491600000001467113554722471082740822608250
9541537389OZAN        DO¶AN         NURULLAH    30117611010120080021038301010102231101715956950TOROS MH 70 SK       SöMERBANK S B2 K4 N37SEYHAN      011700101023851540271288100000000000001637131384660000000000001782431529510000001782433531630881072200726507242
9541732581EMRE        MòCOZKADIO¶LU MEHMET      01097711800480030076005680048001441101715954950SAVRUN M DEVRòûPAûA CNO:24/A              KADòRLò     015508000981091055601032580000000000001137670000000000000000001260780000000000001137673572250681060800615506118
9542533823ALò         DURAN         HöSEYòN     02027711270100010020001927002700721101715954950K0LEJTEPE.MAH.54.NOLU.SOK.MURAT.AP.NO.18  ûAHòNBEY    272002700888711353341116450000000000001456061218910000000000001610141372610000001456063553382181076660770407685
9543042553HAVA        AKYEL         MEHMET      15027821010120080030025601010111225601317467950MEYDAN MAH 6 SOKAK   NO:5                 SEYHAN      010800101035171101241110190000000000001227971236840000000000001418081426830000001227973552610181094930950509499
9543624205BARIû       öZEL          MUSTAFA     07057811010150030005016401000100371101715956950DôûEME MAHALLESò     9.SOKAK NO:1         SEYHAN      011300101054631352111225050000001165781463781336460000001332501631291503580000001463783553382381083360837508356
9544263183MAHMUT      TEMEL         MöNòR       06097611490000020084005049003300441101715957950SELEN MAH. 2069 SK.  NO:35                TOROSLAR    330503301428011760081530560000001524631855971626810000001669551999811771190000001999813512911681072460719207219
9544273125MEHMET ALò  ÄIPLAK        ABBAS       17037911441301450014003144004401481101715956950GôZTEPE MAHALLESò 4. SOKAK NO:13                      440504401015391442011234310000000000001496811288720000000000001579011370330000001496813554692481040510411004080
9545456347MUSTAFA B.  KESER         ERDO¶AN     12127811010190050011026101010102231101715954960TOROS M 67 S SöNGö APA BLOK K:Z NO:2      SEYHAN      011700100891251253051075070000000000001354411176240000000000001506451328000000001506453516351681075740760207588
9545526737EVRòM       DURMUû        BEKòR       05017911330670010061000433003302471101715957950TURGUTREòS M. 427 S. ÄA¶RI A. A/BLOK NO:11            330103301390571359521381490000001525141493271515650000001727001693901716900000001716903511720191100931003110062
9546915695AYûEGöL     KONDUR        AHMET       02047721010150010018001201010109615506614374950GAZòPAûA MAH.2SOK.   NO:11                SEYHAN      011400100988321285821158540000000000001390921265000000000000001548561424690000001627383553651781080870788207985
9547708723GôNöL       KELEû         HASAN       05047821460720010030001346078001931101733034950DR. òHSAN GôKNEL MAH.15. SK. NO:11                    018608001358961200091271690000001474141315621387040000001646921488911560080000001387043552582091086390866408652
9548538161AYTEN YILDIZUÄKUN         DòYAP       23057921010170020073004901010100531101715954950HADIRLI KôYö                              SEYHAN      013650101095961271641251290000001196731371051351380000001347891520171501520000001520173516351181075580745607507
