H01/01/1997/001                                                           
0000000000                              0025020001000002400000000 
0000081200HASAN KILIÇ                   0025020001000002400000000 
0000084625YURDAL ÇETİN                  0025020001000002400000000 
0083289416H.BİLAL BİLALOĞLU             0025020001000002400000000 
0084246555MUSTAFA KABUKÇU               0025010001000002400000000 
0084272568İSMAİL TOKLU                  0025010001000002400000000 
0088272013ÜNAL DUMAN                    0025010001000002400000000 
0090272041ÖZCAN ERBİL                   0025010001000002400000000 
0090275004ERCAN ARSLAN                  0025050001000002400000000 
0090311028ASİYE TATLI                   0025050001000002400000000 
0091272019ÖZER KANDEMİR                 0025010001000002400000000 
0091289048ABDULLAH ATAMER               0025020001000002400000000 
0091289061FAİK KEKLİKÇİ                 0025020001000002400000000 
0092272011NURÇİN NURÇİN                 0025010001000002400000000 
0092272024SÜLEYMAN TEKİN                0025010001000002400000000 
0092275046NACİYE DEDEMEN                0025050001000002400000000 
0092275057JALE KOÇ                      0025050001000002400000000 
0092289009AHMET UYGUR                   0025020001000002400000000 
0092289044ABDURRAHMAN TATLI             0025020001000002400000000 
0092297031EMİNE EMRE FÜSUN ÖZCAN        0025040001000002400000000 
0092297050ELİF ÖZER                     0025040001000002400000000 
0092297052ALİYE GÜNEŞ                   0025040001000002400000000 
0092297054MERYEM SEFER                  0025040001000002400000000 
0092385022NECVA ÇELİK                   0025030001000002400000000 
0092561006MURAT ŞAHİN BELCİ             0025060001000002400000000 
0092561008HARUN TANIR                   0025060001000002400000000 
0092561010SAFFET KURTULMUŞ              0025060001000002400000000 
0092561013CUMALİ BOZDOĞAN               0025060001000002400000000 
0092561014CAVİT KILIÇ                   0025060001000002400000000 
0092561016YUSUF YILDIRIM                0025060001000002400000000 
0092561018TAHSİN GÜLLÜ                  0025060001000002400000000 
0092561023FATİH MOLLAHÜSEYİNOĞLU        0025060001000002400000000 
0092561034HİKMET KAVASOĞLU              0025060001000002400000000 
0092561040SONER AY                      0025060001000002400000000 
0092561051İSMAİL ARSLAN                 0025060001000002400000000 
0092561059GÜLTEKİN UZUN                 0025060001000002400000000 
0093222009CELAL EREN                    0025070001000002400000000 
0093222015MEHMET ULUĞ                   0025070001000002400000000 
0093222016NAMIK DOĞAN                   0025070001000002400000000 
0093222018CENGİZ BEYAZKOÇ               0025070001000002400000000 
0093272001MESUT AYDIN                   0025010001000002400000000 
0093272002YASEMİN GÜLER                 0025010001000002400000000 
0093272009SONER ERSOYLU                 0025010001000002400000000 
0093272010ŞEVKET  TÜRKMENDAĞ            0025010001000002400000000 
0093272016ŞAZİYE ŞAFAK                  0025010001000002400000000 
0093272020ÜMÜT KÜTAN                    0025010001000002400000000 
0093275004ÖZLEM ÇETİN                   0025050001000002400000000 
0093275025MEHMET ERGİN                  0025050001000002400000000 
0093275030SELMA AYIK                    0025050001000002400000000 
0093275034TÜLAY ADIKTI                  0025050001000002400000000 
0093275037RAMAZAN AYDIN                 0025050001000002400000000 
0093275039MÜZEYYEN GÜNTEPE              0025050001000002400000000 
0093275051LEYLA BODUR                   0025050001000002400000000 
0093289002ALİ RIZA CENGİZ               0025020001000002400000000 
0093289006ERKAN YILDIRIM                0025020001000002400000000 
0093289008ARZU SİNAR                    0025020001000002400000000 
0093289010TARIK ERDOĞAN                 0025020001000002400000000 
0093289013YAVUZ ATEŞÇELİK               0025020001000002400000000 
0093289018MUSTAFA CERİT                 0025020001000002400000000 
0093289042AHMET HOCAOĞLU                0025020001000002400000000 
0093289043HAMZA KOCABAŞ                 0025020001000002400000000 
0093289046YAKUP ÇEBİŞ                   0025020001000002400000000 
0093289048ADEM ÇATAK                    0025020001000002400000000 
0093289056MEHMET ALİ ÇAYMAZ             0025020001000002400000000 
0093289063DERYA SOMER                   0025020001000002400000000 
0093297016NALAN KINIK                   0025040001000002400000000 
0093297020ASLAN YILMAZ                  0025040001000002400000000 
0093297024BİLGİ KORKMAZ                 0025040001000002400000000 
0093297026AYŞE ÇOT                      0025040001000002400000000 
0093297028ENDER GÜL                     0025040001000002400000000 
0093297030YAŞAR GÜZEL                   0025040001000002400000000 
0093297042EYÜP KÜTÜK                    0025040001000002400000000 
0093297043SEDAT DEMİRKRAN               0025040001000002400000000 
0093297048SEMRA KARADAG                 0025040001000002400000000 
0093385001TÜLÜN ÇAĞLI                   0025030001000002400000000 
0093385002MİNE AYŞE GÜR                 0025030001000002400000000 
0093385003NAZLI YILDIRIM                0025030001000002400000000 
0093385008DERYA ULAŞANLAR               0025030001000002400000000 
0093385016ELİF KABAKÇI                  0025030001000002400000000 
0093385021HÜLYA AKKAŞ                   0025030001000002400000000 
0093385023FİKRİYE ÇELENK                0025030001000002400000000 
0093385025TALAT DEMİROCAK               0025030001000002400000000 
0093385029NEVİN TÜLÜCÜ                  0025030001000002400000000 
0093561005HALİL İBRAHİM AĞCA            0025060001000002400000000 
0093561007MEHMET İNCİ                   0025060001000002400000000 
0093561009BÜLENT GÜNDOĞDU               0025060001000002400000000 
0093561014SERDAR ŞAHİN                  0025060001000002400000000 
0093561022MEHMET İBEKCİ                 0025060001000002400000000 
0093561028AKIN DURMUŞ                   0025060001000002400000000 
0093561042SUPHİ KARA                    0025060001000002400000000 
0093561046FAİK ERDEM OKAN               0025060001000002400000000 
0093561050İBRAHİM KOÇYİĞIT              0025060001000002400000000 
0093561053BEYHAN AKIN                   0025060001000002400000000 
0093561054ÜMİT GÜLEÇ                    0025060001000002400000000 
0094222002AHMET IŞIK                    0025070001000002400000000 
0094222004İSMET DURSUN                  0025070001000002400000000 
0094222009MUSTAFA KIRK                  0025070001000002400000000 
0094222017SEMİHA YILDIZ                 0025070001000002400000000 
0094222018SAMİ KAYA                     0025070001000002400000000 
0094222025ERTAN GENÇ                    0025070001000002400000000 
0094222027ABDURRAHMAN ÇETİN             0025070001000002400000000 
0094222028OKTAY GİRİTLİOĞLU             0025070001000002400000000 
0094272002HAKAN ŞİMŞEK                  0025010001000002400000000 
0094272004TOLGA AKKILIÇ                 0025010001000002400000000 
0094272005FATİH İZİTAŞ                  0025010001000002400000000 
0094272006AYTAÇ AYIK                    0025010001000002400000000 
0094272010YILMAZ ÖZALP                  0025010001000002400000000 
0094272015ALİ YÜCE                      0025010001000002400000000 
0094272017ERTAN DİLER                   0025010001000002400000000 
0094272019YAHYA MURAT ORHAN             0025010001000002400000000 
0094272024KAMIL ERTAŞ                   0025010001000002400000000 
0094272026HAKAN SEÇİLMİŞ                0025010001000002400000000 
0094272030NECATİ ÖZŞARİK                0025010001000002400000000 
0094272033FARUK TÜRK                    0025010001000002400000000 
0094272034VOLKAN BAYRAM                 0025010001000002400000000 
0094272036SALİH BUKAN                   0025010001000002400000000 
0094272038HAKAN DERELİ                  0025010001000002400000000 
0094272042İBRAHİM DOĞAN                 0025010001000002400000000 
0094272044YAŞAR GÜLGER                  0025010001000002400000000 
0094275004SEVİM DURAK                   0025050001000002400000000 
0094275014YASİN DURKO                   0025050001000002400000000 
0094275017MEHMET EMİN AKBULUT           0025050001000002400000000 
0094275023MURAT İNANIR                  0025050001000002400000000 
0094275027DURDANE DAVARCI               0025050001000002400000000 
0094275029AYŞE GENÇDOĞAN                0025050001000002400000000 
0094275035OZAN NAS                      0025050001000002400000000 
0094275036NURŞEN KARA                   0025050001000002400000000 
0094275037SEMİH ÇETKİN                  0025050001000002400000000 
0094275038ENDAM DURAL                   0025050001000002400000000 
0094275041FİDAN BAYRAMOVA               0025050001000002400000000 
0094275042EBRU KAPLANTAŞ                0025050001000002400000000 
0094275044DURDANE DEMET SAĞ             0025050001000002400000000 
0094275046ZEYNEP YAŞAR                  0025050001000002400000000 
0094289001TUGAY ERİŞ                    0025020001000002400000000 
0094289002İSA AKSIN                     0025020001000002400000000 
0094289003ABDURRAHİM ÇİÇEK              0025020001000002400000000 
0094289004ERKAN GÜNAY                   0025020001000002400000000 
0094289006ADEM ÇOLAK                    0025020001000002400000000 
0094289007AYŞEGÜL TEM                   0025020001000002400000000 
0094289010DURSUN ARSLAN                 0025020001000002400000000 
0094289011BOZAN ALACA                   0025020001000002400000000 
0094289016SELİM BÜYÜKASLAN              0025020001000002400000000 
0094289022ÖNDER YÜZÜNCÜ                 0025020001000002400000000 
0094289023HAYDAR SUBAŞİ                 0025020001000002400000000 
0094289026VEYSEL DÖNER                  0025020001000002400000000 
0094289029ALİ TOZCU                     0025020001000002400000000 
0094289031MURAT ŞENYÜZ                  0025020001000002400000000 
0094289032YUSUF ŞAHİN                   0025020001000002400000000 
0094289039MEHMET AĞYAR                  0025020001000002400000000 
0094289040ADEM BOZAT                    0025020001000002400000000 
0094289042YILMAZ ÇELİK                  0025020001000002400000000 
0094289045ERSİN YILDIZ                  0025020001000002400000000 
0094289046ADNAN YILMAZ                  0025020001000002400000000 
0094289047ŞEYHMUS YILMAZ                0025020001000002400000000 
0094289048FAKI ÖRTLEK                   0025020001000002400000000 
0094289049MEHMET GÜLNAR                 0025020001000002400000000 
0094289053BARIŞ KAYACIK                 0025020001000002400000000 
0094297003AYSUN KUBİLAY                 0025040001000002400000000 
0094297004TÜRKAN ELATAŞ                 0025040001000002400000000 
0094297005MEHMET ŞAHİN ARSLAN           0025040001000002400000000 
0094297006HAKAN ŞENTÜRK                 0025040001000002400000000 
0094297011SİBEL YUMUŞAK                 0025040001000002400000000 
0094297012FATİH YILMAZ                  0025040001000002400000000 
0094297013RANA GÖZÜBÜYÜK                0025040001000002400000000 
0094297014CUMALİ YILMAZ                 0025040001000002400000000 
0094297015ALPER MERGEN                  0025040001000002400000000 
0094297016PERİ EBREN                    0025040001000002400000000 
0094297018ERDİNÇ KÖPRÜLÜ                0025040001000002400000000 
0094297020AYDIN ZEYTİNOĞLU              0025040001000002400000000 
0094297021ŞADİ AKBAŞ                    0025040001000002400000000 
0094297023BEYZA KUMACI                  0025040001000002400000000 
0094297029SADİYE ÇİÇEK                  0025040001000002400000000 
0094297031ERDEM ÖZTÜRK                  0025040001000002400000000 
0094297033DİLEK ÖZDEMİR                 0025040001000002400000000 
0094297035MELTEM KILINÇ                 0025040001000002400000000 
0094297036AYDIN DOĞAN                   0025040001000002400000000 
0094297038DERVİŞ ŞAKAR                  0025040001000002400000000 
0094297039CENGİZ SEVİK                  0025040001000002400000000 
0094297041SONGÜL BAKAR                  0025040001000002400000000 
0094297043EDA ÖKTEN                     0025040001000002400000000 
0094297044M.YUSUF MANSUR                0025040001000002400000000 
0094297045NİDA ÇUHADAR                  0025040001000002400000000 
0094297046BERTA KOCADAĞ                 0025040001000002400000000 
0094297049SONGÜL YILMAZ                 0025040001000002400000000 
0094297051ESİN ONAT                     0025040001000002400000000 
0094297052GÜLAY SAZAN                   0025040001000002400000000 
0094297053İBRAHİM DURMUŞ                0025040001000002400000000 
0094297055NECLA YAMAN                   0025040001000002400000000 
0094297057MURAT TAY                     0025040001000002400000000 
0094311025EYÜP KOZANOĞLU                0025050001000002400000000 
0094385005HÜSEYİN BOŞNAK                0025030001000002400000000 
0094385007İBRAHİM SUNGUR                0025030001000002400000000 
0094385012RAHŞAN KARAGÜL                0025030001000002400000000 
0094385017ADNAN ÖZTÜRK                  0025030001000002400000000 
0094385018GÜLŞEN ARSLAN                 0025030001000002400000000 
0094385024YETER ÖZCAN                   0025030001000002400000000 
0094385027SELAHATTİN ARSLAN             0025030001000002400000000 
0094385030HALİL ERSİN                   0025030001000002400000000 
0094385031SEVİL VURAL                   0025030001000002400000000 
0094561003HASAN ÖZBEK                   0025060001000002400000000 
0094561004ERTUĞRUL ERSAKAY              0025060001000002400000000 
0094561009MEHMET YÖRÜK                  0025060001000002400000000 
0094561010YÖNET BÜYÜK                   0025060001000002400000000 
0094561012ÖMER ÖZLEN                    0025060001000002400000000 
0094561013ABDULLAH ARICAK               0025060001000002400000000 
0094561014ÖMER YILDIZ                   0025060001000002400000000 
0094561016OSMAN BARUT                   0025060001000002400000000 
0094561018TEKİN KAVAK                   0025060001000002400000000 
0094561024MESUT BAŞKAYA                 0025060001000002400000000 
0094561026ÜMİT TOPKAYA                  0025060001000002400000000 
0094561031HACI OSMAN ÖZÇELİK            0025060001000002400000000 
0094561032NAHİDE UZUN                   0025060001000002400000000 
0094561033OĞUZHAN KARAKILIÇ             0025060001000002400000000 
0094561035MAHMUT YOLCU                  0025060001000002400000000 
0094561036MUHAMMET BEYHUN               0025060001000002400000000 
0094561037GÖKHAN  SARIOVA               0025060001000002400000000 
0094561038MURAT AYDOĞAN                 0025060001000002400000000 
0094561039ORHAN BAŞ                     0025060001000002400000000 
0094561041RAMAZAN YALÇIN                0025060001000002400000000 
0094561042SONEL DEMİREL                 0025060001000002400000000 
0094561043MEHMET TUNCAY AYTAÇ           0025060001000002400000000 
0094561044FERAT DEMİR                   0025060001000002400000000 
0094561048ENGİN KÖKEN                   0025060001000002400000000 
0094561051MEHMET GÜR                    0025060001000002400000000 
0094561052ŞERİF DAĞDELEN                0025060001000002400000000 
0094561053SELÇUK GÖÇMEN                 0025060001000002400000000 
0094561054MEHMET YAZAR                  0025060001000002400000000 
0094561057RAMAZAN DEMİR                 0025060001000002400000000 
0095222001HALİT EVSAN                   0025070001000002400000000 
0095222002SİBEL KARA                    0025070001000002400000000 
0095222003MEHMET CAN ZURBA              0025070001000002400000000 
0095222005GÜRAY KÜÇÜKKARABACAK          0025070001000002400000000 
0095222006MURAT AKBURAK                 0025070001000002400000000 
0095222007ŞENAY ATLAY                   0025070001000002400000000 
0095222009LEYLA TAZE                    0025070001000002400000000 
0095222010METİN ARSAY ÜNAL              0025070001000002400000000 
0095222011EMİNE KARADAĞ                 0025070001000002400000000 
0095222012MEHMET İLKER ŞEN              0025070001000002400000000 
0095222014AYSUN YURTSEVEN               0025070001000002400000000 
0095222015MERAM SİYLİ                   0025070001000002400000000 
0095222016DEVRAN YONTAR                 0025070001000002400000000 
0095222017SELÇUK AKYEL                  0025070001000002400000000 
0095222018SELMA GEZİCİ                  0025070001000002400000000 
0095222019MACİT DOĞRUSÖZ                0025070001000002400000000 
0095222020TEMEL AKIN                    0025070001000002400000000 
0095222021MEHMET MAHİR GÜZEL            0025070001000002400000000 
0095222023SULTAN TANLI                  0025070001000002400000000 
0095222024ÖZLEM ÖZGÜL COŞKUN            0025070001000002400000000 
0095234001MUTTASIM KARUÇ                0025020001000002400000000 
0095234002ALİ TOKGÖZ                    0025020001000002400000000 
0095234003NAİL KOYUNSEVER               0025020001000002400000000 
0095234005HARUN AKSU                    0025020001000002400000000 
0095234006YUSUF SARİ                    0025020001000002400000000 
0095234007ABDURRAHİM ELİK               0025020001000002400000000 
0095234008BURAK ŞENDAĞ                  0025020001000002400000000 
0095234009SERDAR KEMAL PAKKUMSAL        0025020001000002400000000 
0095234010HARUN COŞKUN                  0025020001000002400000000 
0095234011KUTLAY TOKER                  0025020001000002400000000 
0095234012ABUZER YILDIRIM               0025020001000002400000000 
0095234013AHMET DÜZCE                   0025020001000002400000000 
0095234014SEBAHATTİN İLHAN              0025020001000002400000000 
0095234015YALÇIN ORMAN                  0025020001000002400000000 
0095234016GÖKHAN HOCAOĞLU               0025020001000002400000000 
0095234017HÜSAMETTİN ONARICILAR         0025020001000002400000000 
0095234018EMİN TAŞ                      0025020001000002400000000 
0095234020MURAT TAKÇI                   0025020001000002400000000 
0095234021ALİ BAĞLAR                    0025020001000002400000000 
0095234022HAYATİ ALAÇI                  0025020001000002400000000 
0095234023BÜLENT ANDIRIR                0025020001000002400000000 
0095234025YUNUS TURHAN                  0025020001000002400000000 
0095234026GÖKHAN KORKMAZ                0025020001000002400000000 
0095234027HAKAN YILMAZ                  0025020001000002400000000 
0095234028AHMET ÇELİK                   0025020001000002400000000 
0095234029SÜLEYMAN KARA                 0025020001000002400000000 
0095234030MUSA BERKYEZ                  0025020001000002400000000 
0095234031EMBİYA ERHAN ÜNLÜ             0025020001000002400000000 
0095234032HATİCE ÖZER                   0025020001000002400000000 
0095234033İBRAHİM BALDAN                0025020001000002400000000 
0095234034SİNAN YILDIZ                  0025020001000002400000000 
0095234035YILMAZ TAN                    0025020001000002400000000 
0095234036ŞABAN IRK                     0025020001000002400000000 
0095234037SALİH ÖZEN                    0025020001000002400000000 
0095234038NİHAT KÖKEN                   0025020001000002400000000 
0095234039ESER BİLMEZ                   0025020001000002400000000 
0095234040HARUN GÖDE                    0025020001000002400000000 
0095234041MÜSLÜM KÜÇÜKBAĞCI             0025020001000002400000000 
0095234042SALİH YILMAZ                  0025020001000002400000000 
0095234043İBRAHİM KARA                  0025020001000002400000000 
0095234044PAŞA ARİ                      0025020001000002400000000 
0095234046MUSTAFA KEMAL ERÇİFTÇİ        0025020001000002400000000 
0095234047ERDİNÇ ALKAN                  0025020001000002400000000 
0095234048ORHAN MUTLU                   0025020001000002400000000 
0095234049TUFAN ÖNDER                   0025020001000002400000000 
0095234050SERTAN BARIŞ                  0025020001000002400000000 
0095234051HÜSEYİN İKİZ                  0025020001000002400000000 
0095234053ZAFER HAKKI TÜRKMEN           0025020001000002400000000 
0095234055ENGİN EVER                    0025020001000002400000000 
0095234056BAKİ COP                      0025020001000002400000000 
0095246001CANAN PAYTAR                  0025010001000002400000000 
0095246002SABRİYE TEKİN                 0025010001000002400000000 
0095246003AHMET ÖZKAN                   0025010001000002400000000 
0095246004ERTUĞRUL ŞEHUN                0025010001000002400000000 
0095246005İBRAHİM KORAY ÖZGÖREN         0025010001000002400000000 
0095246006SEDAT KARAKAYA                0025010001000002400000000 
0095246007NAZENDE BAKLALI               0025010001000002400000000 
0095246008ALİ DİNÇ                      0025010001000002400000000 
0095246009METİN ÇALIŞKAN                0025010001000002400000000 
0095246010NESLİHAN DEDE                 0025010001000002400000000 
0095246012İBRAHİM ERYILDIZ              0025010001000002400000000 
0095246013HURİYE BOZ                    0025010001000002400000000 
0095246014UĞUR KARABIÇAK                0025010001000002400000000 
0095246015ESEN POYRAZ                   0025010001000002400000000 
0095246016DİLEK DELİÇAY                 0025010001000002400000000 
0095246017KEMAL CAN                     0025010001000002400000000 
0095246018NİLGÜN KOCALAR                0025010001000002400000000 
0095246020HASAN POLAT                   0025010001000002400000000 
0095246021MUSTAFA ARSLANKURT            0025010001000002400000000 
0095246023FEHMİ EVREN DALOĞLU           0025010001000002400000000 
0095246024ALPER TÜLÜCE                  0025010001000002400000000 
0095246026TÜRKER ÖZMEN                  0025010001000002400000000 
0095246027MURAT ÇAKMAK                  0025010001000002400000000 
0095246028ŞÜKRÜ OKAN EMİR               0025010001000002400000000 
0095246029FUNDA ÖZDEN                   0025010001000002400000000 
0095246031AHMET HÜRŞAH ÇELİK            0025010001000002400000000 
0095246032BOĞAÇHAN KILLIOĞLU            0025010001000002400000000 
0095246033UĞUR YURTALAN                 0025010001000002400000000 
0095246034DİLEK KÖMÜRCÜ                 0025010001000002400000000 
0095246035M.ŞAMİL AKKAYA                0025010001000002400000000 
0095246036M.NURULLAH BAYIR              0025010001000002400000000 
0095246037HASAN TÜRKMENDAĞ              0025010001000002400000000 
0095246038MEVLÜDE  ÖZER                 0025010001000002400000000 
0095246039FATMA TOPÇU                   0025010001000002400000000 
0095246041AYŞE GÜL                      0025010001000002400000000 
0095258001CANAN AKDOĞAN                 0025040001000002400000000 
0095258002BAHATTİN TURAK                0025040001000002400000000 
0095258003EBRU DEMİRKIRAN               0025040001000002400000000 
0095258004ALİ SULANÇ                    0025040001000002400000000 
0095258005FATMA SEVİNÇ BALSEVEN         0025040001000002400000000 
0095258006GÜLAY KURT                    0025040001000002400000000 
0095258007AYTEN BİLGİN                  0025040001000002400000000 
0095258008ÖZNUR ÖZ                      0025040001000002400000000 
0095258009ELÇİN TÜRKER                  0025040001000002400000000 
0095258010KAMİLE ELİF ALPER             0025040001000002400000000 
0095258011GÜLBAHAR ERTÜFEKÇİ            0025040001000002400000000 
0095258012ALİYE KARAHAN                 0025040001000002400000000 
0095258013GÖKBEN ŞİMŞEK                 0025040001000002400000000 
0095258014NURTEN SINIRTAŞ               0025040001000002400000000 
0095258015HÜRÜ GÜRDAĞ                   0025040001000002400000000 
0095258016MERYEM GÜLTEN TAZE            0025040001000002400000000 
0095258017MEHMET KENAN DORKEN           0025040001000002400000000 
0095258018EYLEM SAĞLAM                  0025040001000002400000000 
0095258020ERKAN TAŞKIN                  0025040001000002400000000 
0095258022BARIŞ AKDEMİR                 0025040001000002400000000 
0095258023ZEYNEP TAŞ                    0025040001000002400000000 
0095258024PERVİN KESER                  0025040001000002400000000 
0095258025NALAN TIBIK                   0025040001000002400000000 
0095258026MEHTAP ÖNER                   0025040001000002400000000 
0095258027TUĞBA KARATAŞ                 0025040001000002400000000 
0095258028ESRA PEHLİVAN                 0025040001000002400000000 
0095258029NİLGÜN ÇÖMETEN                0025040001000002400000000 
0095258030İLKAY GİRİCİ                  0025040001000002400000000 
0095258031HAKAN ÖZKAN                   0025040001000002400000000 
0095258032MEHTAP ÖZMEN                  0025040001000002400000000 
0095258034CANAN TUNCEL                  0025040001000002400000000 
0095258035ALİ BAKLACI                   0025040001000002400000000 
0095258036SAFİYE KOÇ                    0025040001000002400000000 
0095258037DOLUNAY CİNKARA               0025040001000002400000000 
0095258038EBRU GÜLSÜM CENGİZOĞLU        0025040001000002400000000 
0095258039SENEM SARI                    0025040001000002400000000 
0095258040NAZAN UMUÇ                    0025040001000002400000000 
0095258041KUDRET BAŞARAN                0025040001000002400000000 
0095258042SELAHATTİN YALÇIN             0025040001000002400000000 
0095258043BERNA BAYRAK                  0025040001000002400000000 
0095258044FERAY YEŞİLÇİMENLİ            0025040001000002400000000 
0095258045ALİ FUAT ÇAKIR                0025040001000002400000000 
0095258048SAFİYE ATAY                   0025040001000002400000000 
0095258049BERDİMIRAT MAMİNOV            0025040001000002400000000 
0095258050SAHATKULİ AMANKULİYEV         0025040001000002400000000 
0095258051HAKKI ERİM                    0025040001000002400000000 
0095258052HANDE DURUKAN                 0025040001000002400000000 
0095258053ESRA ONAT                     0025040001000002400000000 
0095258054MİNE GÜLER                    0025040001000002400000000 
0095258056ÖZGEN ŞİMŞEK                  0025040001000002400000000 
0095258057MEHMET DEST                   0025040001000002400000000 
0095258058DÜRDANE DEMİREL               0025040001000002400000000 
0095258061DOĞAN ADKOVAYÇİN              0025040001000002400000000 
0095261002MUSTAFA GELGEÇ                0025060001000002400000000 
0095261004MİKAİL KARAYAĞIZ              0025060001000002400000000 
0095261005AHMET BALKAN                  0025060001000002400000000 
0095261006BÜLENT GÖRMEZER               0025060001000002400000000 
0095261007MEHMET DİKAĞAÇ                0025060001000002400000000 
0095261008FATMA PINAR SEYHUN            0025060001000002400000000 
0095261009PADİŞAH SEHLİKOĞLU            0025060001000002400000000 
0095261010CEMİL KAHRAMAN                0025060001000002400000000 
0095261011FUAT YILDIZ                   0025060001000002400000000 
0095261012CEM KULAK                     0025060001000002400000000 
0095261013BİROL DALDABAN                0025060001000002400000000 
0095261014YASİN AŞICI                   0025060001000002400000000 
0095261016FİKRET KAYHAN                 0025060001000002400000000 
0095261017M.ŞEFİK EKİNCİ                0025060001000002400000000 
0095261018ADEM HANÇER                   0025060001000002400000000 
0095261019HAKAN CALIŞKAN                0025060001000002400000000 
0095261020MAHMUT AYGÜN                  0025060001000002400000000 
0095261021CENGİZ BARBAROS               0025060001000002400000000 
0095261022AHMET ESMERSOY                0025060001000002400000000 
0095261023HÜSEYİN DOĞAN                 0025060001000002400000000 
0095261024BEKİR YILMAZ                  0025060001000002400000000 
0095261025KÜRŞAT ÇOLAKKADIOĞLU          0025060001000002400000000 
0095261026AHMET ÇEVİK                   0025060001000002400000000 
0095261027TEVFİK TAVUKÇU                0025060001000002400000000 
0095261028İSMAİL ÖZKAN                  0025060001000002400000000 
0095261029OKTAY BİRGENÇ                 0025060001000002400000000 
0095261030COŞKUN ŞABANOĞLU              0025060001000002400000000 
0095261031SELÇUK ÖNAL                   0025060001000002400000000 
0095261032OKTAY ALAOSMAN                0025060001000002400000000 
0095261033MURAT KÖPREK                  0025060001000002400000000 
0095261034DURAN KARATAŞ                 0025060001000002400000000 
0095261035HACI ÇINAR                    0025060001000002400000000 
0095261036ÖKKEŞ MURAT KAPTANOĞLU        0025060001000002400000000 
0095261038FERHAT AVAN                   0025060001000002400000000 
0095261040MEHMET LEVENTERLER            0025060001000002400000000 
0095261041İSMAİL KÜRŞAT GÜRLER          0025060001000002400000000 
0095261042ATİLLA ÖNALIR                 0025060001000002400000000 
0095261043MEHMET ALİ YILMAZ             0025060001000002400000000 
0095261044VEYSİ BAŞAR                   0025060001000002400000000 
0095261045FATİH YILMAZ                  0025060001000002400000000 
0095261046AHMET GOKHAN SAYLAK           0025060001000002400000000 
0095261047İLKİN BOZ                     0025060001000002400000000 
0095261048MEHMET ALİ ŞENGÜL             0025060001000002400000000 
0095261049GÖKHAN YILDIZ                 0025060001000002400000000 
0095275001NAME KAPLAN                   0025050001000002400000000 
0095275002EMİNE ÇAĞLAR                  0025050001000002400000000 
0095275004LEVENT AKAR                   0025050001000002400000000 
0095275005DİLEK YÜZEREROĞLU             0025050001000002400000000 
0095275006FATMA ATEŞ                    0025050001000002400000000 
0095275007RAMAZAN KAYA                  0025050001000002400000000 
0095275008HAKKI ŞEKER                   0025050001000002400000000 
0095275009FATİH DALOĞLU                 0025050001000002400000000 
0095275010DURDU SIĞIRCI                 0025050001000002400000000 
0095275011YASEMİN KUŞ(ACERBAŞTİMUR)     0025050001000002400000000 
0095275012MERAL ÖZVURGUN                0025050001000002400000000 
0095275013MİNE KOCAHAN                  0025050001000002400000000 
0095275014MUSTAFA KARA                  0025050001000002400000000 
0095275016HACER MARAŞ                   0025050001000002400000000 
0095275018HÜRÜ OKUR                     0025050001000002400000000 
0095275019SONGÜL ŞEN                    0025050001000002400000000 
0095275020VİLDAN ASLAN                  0025050001000002400000000 
0095275021İSMAİL IHMAZ                  0025050001000002400000000 
0095275022SERKAN SEVGİ                  0025050001000002400000000 
0095275023GÜLFER KAHRAMAN               0025050001000002400000000 
0095275024MERYEM HABERDAR               0025050001000002400000000 
0095275025AYTAÇ İSPİR                   0025050001000002400000000 
0095275026ÖZLEM ESKİTELVAN              0025050001000002400000000 
0095275027EBRU KESER                    0025050001000002400000000 
0095275028KEMAL ÇABUK                   0025050001000002400000000 
0095275029NURİ YENİLMEZ                 0025050001000002400000000 
0095275030EYLEM HANGÜN                  0025050001000002400000000 
0095275031YETER KARAASLAN               0025050001000002400000000 
0095275032YUSUF KAYA                    0025050001000002400000000 
0095275033ALİ OLCARS                    0025050001000002400000000 
0095275034ADNAN DEMİRDÖĞEN              0025050001000002400000000 
0095275035AYŞE DEMİR                    0025050001000002400000000 
0095275036İBRAHİM SAVAŞ DÜNDAR          0025050001000002400000000 
0095275037NİLGÜN İSLAM                  0025050001000002400000000 
0095275038HATİCE ATKIN                  0025050001000002400000000 
0095275040BÜLENT TUTAR                  0025050001000002400000000 
0095275041TAYFUR ÖZAY                   0025050001000002400000000 
0095275042ZEYNEP HAKKOYMAZ              0025050001000002400000000 
0095275043HANİFİ ZAİMOĞLU               0025050001000002400000000 
0095275044HÜRÜ SOYAK                    0025050001000002400000000 
0095275045ESMA AKYOL                    0025050001000002400000000 
0095275046MAHMUT ALTINÖZ                0025050001000002400000000 
0095275047SEVGİ EKİCİ                   0025050001000002400000000 
0095275048HALİL GÖLCÜ                   0025050001000002400000000 
0095275049EYLEM OZAN                    0025050001000002400000000 
0095285001ALİ CANIMANA                  0025030001000002400000000 
0095285002ZEKİYE NALBANT                0025030001000002400000000 
0095285004ERKAN YETİŞ                   0025030001000002400000000 
0095285005REYHAN ALHAS                  0025030001000002400000000 
0095285006ABDUSSAMET ANIL               0025030001000002400000000 
0095285007FATMA ŞAHİN                   0025030001000002400000000 
0095285008KERİM TÜLÜCE                  0025030001000002400000000 
0095285009ELİF İNCE                     0025030001000002400000000 
0095285010MESUT AKKUŞ                   0025030001000002400000000 
0095285011İNAN DÖNMEZ                   0025030001000002400000000 
0095285012YÜKSEL SADAK                  0025030001000002400000000 
0095285013MERYEM YALIN                  0025030001000002400000000 
0095285014SEBAHATTİN KAHAN              0025030001000002400000000 
0095285015ASLIHAN YILDIZ                0025030001000002400000000 
0095285016YUNUS ERTÜRK AKSOY            0025030001000002400000000 
0095285017FATMA BAŞ                     0025030001000002400000000 
0095285018HATİCE ÇOT                    0025030001000002400000000 
0095285019AYŞE AHU ÖZOKÇU               0025030001000002400000000 
0095285020LÜTFİYE GÜL DAĞ               0025030001000002400000000 
0095285022İNCİ KOCA                     0025030001000002400000000 
0095285023ALİ KÜRŞAT FİZAN              0025030001000002400000000 
0095285024AHMET AMANVERMEZ              0025030001000002400000000 
0095285025YUSUF SİVASLI                 0025030001000002400000000 
0095285026NAZIM ACAR                    0025030001000002400000000 
0095285027HİLAL DOMURCUK                0025030001000002400000000 
0095285029ARZU GEZGİNCİ                 0025030001000002400000000 
0095285030BÜLENT KÖLEOĞLU               0025030001000002400000000 
0095285031KENAN SEÇKİN                  0025030001000002400000000 
0095285032HÜSNE BALA YAZAR              0025030001000002400000000 
0095285033DİLŞAT HATİCE BÜLBÜL          0025030001000002400000000 
0095285034SİBEL AKKOYUN                 0025030001000002400000000 
0095285035DERYA OLKUNER                 0025030001000002400000000 
0095285037VELİ TUNCEZ                   0025030001000002400000000 
0095285038FUNDA GEÇİLİ                  0025030001000002400000000 
0096222003ZAFER YİĞİT                   0025070001000001800000000 
0096222004DURDU EZGİ EDİŞ               0025070001000001800000000 
0096222005MİNE EVSAN                    0025070001000001800000000 
0096222006BİGE PELER                    0025070001000001800000000 
0096222007GÜLŞAH AÇIKGÖZ                0025070001000001800000000 
0096222008ALİ AÇIKGÖZ                   0025070001000001800000000 
0096222009ÖZGÜR ÇABUK                   0025070001000001800000000 
0096222010FİDAN CAN                     0025070001000001800000000 
0096222011ÖZGÜR AKSUNA                  0025070001000001800000000 
0096222012SONGÜL KAYACI                 0025070001000001800000000 
0096222013ALİ GÜZEL                     0025070001000001800000000 
0096222015ŞERAFETTİN TUNÇ               0025070001000001800000000 
0096222016HÜSNİYE GÜLTEKİN              0025070001000001800000000 
0096222017HACER AKTAŞ                   0025070001000001800000000 
0096222018ALİ ULUSOY                    0025070001000001800000000 
0096222019BİLAL TUZSUZ                  0025070001000001800000000 
0096222021SELÇUK TOPAL                  0025070001000001800000000 
0096222022LOKMAN YAVUZ                  0025070001000001800000000 
0096222023RECEP BOZAN                   0025070001000001800000000 
0096222024ÖZGÜR COŞKUN                  0025070001000001800000000 
0096222025SÜHENDAN KAHRAMAN             0025070001000001800000000 
0096222026VEYSEL ÇİTİL                  0025070001000001800000000 
0096222027SERKAN S.KARAOSMANOĞLU        0025070001000001800000000 
0096222028HAVVA DEMİR                   0025070001000001800000000 
0096222029SEMRA TAŞDEMİR                0025070001000001800000000 
0096222030YAKUP ELBİSTAN                0025070001000001800000000 
0096234001UĞUR ATAPEK                   0025020001000001800000000 
0096234002SÜLEYMAN  ASLAN               0025020001000001800000000 
0096234003SEVGİ ÇIRA                    0025020001000001800000000 
0096234004İLHAN ÇENET                   0025020001000001800000000 
0096234005MURTAZA TURŞUCU               0025020001000001800000000 
0096234006MEHMET KOÇYİĞİT               0025020001000001800000000 
0096234007EMRAH CEYRAN                  0025020001000001800000000 
0096234008BÜLENT GÜLTEKİN               0025020001000001800000000 
0096234009SEDAT KANAT                   0025020001000001800000000 
0096234010CEMİLE LAFÇI                  0025020001000001800000000 
0096234011MUMAMMED TAYFUR ÇİÇEK         0025020001000001800000000 
0096234012KENAN ATASOY                  0025020001000001800000000 
0096234013SERKAN TİKER                  0025020001000001800000000 
0096234014OKRAT CECELİ                  0025020001000001800000000 
0096234015BORA AKSU                     0025020001000001800000000 
0096234016BÜNYAMİN KALFA                0025020001000001800000000 
0096234017MEHMET SU                     0025020001000001800000000 
0096234018LEVENT GÜL                    0025020001000001800000000 
0096234019GÜLAY DAĞERİ                  0025020001000001800000000 
0096234020FATİH CANBOLAT                0025020001000001800000000 
0096234021YILMAZ SALIK                  0025020001000001800000000 
0096234022ÜMİT CEBİNE                   0025020001000001800000000 
0096234023SELAHATTİN BERKYEZ            0025020001000001800000000 
0096234024TEVFİK SAYGILI                0025020001000001800000000 
0096234025M.OSMAN TAŞKESER              0025020001000001800000000 
0096234026CANAN KÖROĞLU                 0025020001000001800000000 
0096234027MEHMET TÜRKOĞLU               0025020001000001800000000 
0096234028İLKER TATAR                   0025020001000001800000000 
0096234029DAVUT ADIYAMAN                0025020001000001800000000 
0096234030MUSTAFA NERGİZ                0025020001000001800000000 
0096234032ÖKKEŞ AÇICI                   0025020001000001800000000 
0096234033YAŞAR TURAN                   0025020001000001800000000 
0096234034DURALİ GÖKSU                  0025020001000001800000000 
0096234035İSKENDER ŞAHAN                0025020001000001800000000 
0096234036HAKAN GENÇAY                  0025020001000001800000000 
0096234037OĞUZ SERİN                    0025020001000001800000000 
0096234038ERKAN KARACAN                 0025020001000001800000000 
0096234039AYDIN DURUCU                  0025020001000001800000000 
0096234040ERDOĞAN ASLAN                 0025020001000001800000000 
0096234041TANSEL IŞIKLAR                0025020001000001800000000 
0096234042UFUK İSANÇ                    0025020001000001800000000 
0096234043HACI GÜL                      0025020001000001800000000 
0096234046ATİLLA GÜZEL                  0025020001000001800000000 
0096234047HAKAN ŞİMŞEK                  0025020001000001800000000 
0096234048YÜKSEL KAYA                   0025020001000001800000000 
0096234049FİKRET KÜÇÜKKELEŞ             0025020001000001800000000 
0096234050MURAT GÖKÇE                   0025020001000001800000000 
0096234051MUHAMMET KÖKSAL               0025020001000001800000000 
0096234052ARİF KANDAŞ                   0025020001000001800000000 
0096234053SÜLEYMAN SÜLÜN                0025020001000001800000000 
0096234054HALİL YURDAER                 0025020001000001800000000 
0096234055MURAT APAYDIN                 0025020001000001800000000 
0096234056BÜLENT CERİT                  0025020001000001800000000 
0096234057SAYİT AHMET ÇİÇEK             0025020001000001800000000 
0096234058FUAT BİNİCİ                   0025020001000001800000000 
0096246001MÜJDE İPTEŞ                   0025010001000001800000000 
0096246002SEÇİL LEÇE                    0025010001000001800000000 
0096246003BÜLENT KEMAL ÇETİNER          0025010001000001800000000 
0096246005AYLİN SELÇUK                  0025010001000001800000000 
0096246006ELİF KARA                     0025010001000001800000000 
0096246007FERAMUS KÖKSOY                0025010001000001800000000 
0096246008YILMAZ KAYA                   0025010001000001800000000 
0096246009MUZAFFER M. ÖZKAY             0025010001000001800000000 
0096246010FATİH BORA                    0025010001000001800000000 
0096246011İMREN ÖZ                      0025010001000001800000000 
0096246013ÖNDER KOÇ                     0025010001000001800000000 
0096246014CEMAL CANBAY                  0025010001000001800000000 
0096246015MEVHİBE ÖNER                  0025010001000001800000000 
0096246017İHSAN BİRHOŞ                  0025010001000001800000000 
0096246018HÜSEYİN KALKAN                0025010001000001800000000 
0096246019SERAP YILMAZ                  0025010001000001800000000 
0096246020BÜLENT ADİL ZENGİN            0025010001000001800000000 
0096246021ABDURRAHMAN ÖRPEK             0025010001000001800000000 
0096246022BAHADIR GÜR                   0025010001000001800000000 
0096246023HALUK ÇİFTÇİ                  0025010001000001800000000 
0096246024FATMA BAYDAR                  0025010001000001800000000 
0096246025SAHİBE KARATAŞTAN             0025010001000001800000000 
0096246027İSMAİL SELAMOĞLU              0025010001000001800000000 
0096246028FİKRET GÜDER                  0025010001000001800000000 
0096246029HACI HÜSEYİN KOYLU            0025010001000001800000000 
0096246031ŞAHİN YAPICI                  0025010001000001800000000 
0096246032TURGUT TANGAL                 0025010001000001800000000 
0096246033TAYFUR YILDIRIM               0025010001000001800000000 
0096246034ALİ TURUNÇ                    0025010001000001800000000 
0096246035BAHADIR EMİN ESER             0025010001000001800000000 
0096246036HACI APANOĞLU                 0025010001000001800000000 
0096246038ESRA ARISÜT                   0025010001000001800000000 
0096246039NURCAN ATMACA                 0025010001000001800000000 
0096246040SEVGİ ALACA                   0025010001000001800000000 
0096246041SEÇKİN BEĞEN                  0025010001000001800000000 
0096246042RIZA SAMET HÜMÜLÜ             0025010001000001800000000 
0096246043BAHAR GÜLER                   0025010001000001800000000 
0096246044ÖZLEM AYTOP                   0025010001000001800000000 
0096246045MEHMET ALİ ŞENEL              0025010001000001800000000 
0096258001OĞUZHAN KILIÇ                 0025040001000001800000000 
0096258002GÜL KARAKAYA                  0025040001000001800000000 
0096258003EBRU YAMAN                    0025040001000001800000000 
0096258005REŞAT ELGİN                   0025040001000001800000000 
0096258006NEVİN KAPLAN                  0025040001000001800000000 
0096258007NURHAN PERÇİN                 0025040001000001800000000 
0096258008FATMA IŞIK ŞEN                0025040001000001800000000 
0096258009DENİZ KOÇ                     0025040001000001800000000 
0096258010SERDAR DOĞAN                  0025040001000001800000000 
0096258011BEHİCE KARABURÇAK             0025040001000001800000000 
0096258012RAHŞAN GÜNKÖRDÜ               0025040001000001800000000 
0096258013ASUMAN TOSUN                  0025040001000001800000000 
0096258014NEVİM MİÇOOĞLU                0025040001000001800000000 
0096258015YILMAZ DELİKANLI              0025040001000001800000000 
0096258016SERPİL ŞEN                    0025040001000001800000000 
0096258017ASİYE KÜÇÜK                   0025040001000001800000000 
0096258018EBRU ULUTAŞ                   0025040001000001800000000 
0096258019EMRAH BİREROĞLU               0025040001000001800000000 
0096258020MENÖLYA GÜLTEKİN              0025040001000001800000000 
0096258022AYSEL CÖMERT                  0025040001000001800000000 
0096258023TUBAĞ SARAL                   0025040001000001800000000 
0096258024ŞENAY ŞİRİN                   0025040001000001800000000 
0096258025ABDULKADİR YAKŞİ              0025040001000001800000000 
0096258026CENNET RESULOĞLU              0025040001000001800000000 
0096258027AYŞE KAYA                     0025040001000001800000000 
0096258028ADEM KÜÇÜK                    0025040001000001800000000 
0096258029MERYEM ÖZYER                  0025040001000001800000000 
0096258030FİRUZAN GELİÇ                 0025040001000001800000000 
0096258031BAHZET DOĞAN                  0025040001000001800000000 
0096258032SUNA DAĞ                      0025040001000001800000000 
0096258033AYŞEGÜL ÇETİN                 0025040001000001800000000 
0096258034CEREN KONCA                   0025040001000001800000000 
0096258035ALİ OSMAN BOZKURT             0025040001000001800000000 
0096258036HATİCE ÇAKIR                  0025040001000001800000000 
0096258037YEŞİM ATAY                    0025040001000001800000000 
0096258038SUNA SOLMAZ                   0025040001000001800000000 
0096258039MELEK AYKUT                   0025040001000001800000000 
0096258040ELMAS B.GÜRKAN                0025040001000001800000000 
0096258041HÜSEYİN EROĞLU                0025040001000001800000000 
0096258042SELVİ CANSEVER                0025040001000001800000000 
0096258043NERMIN DEDE                   0025040001000001800000000 
0096258044NERGÜZE TOPÇU                 0025040001000001800000000 
0096258045MELTEM MAŞA                   0025040001000001800000000 
0096258046ALEV ALTUNTAŞ                 0025040001000001800000000 
0096258047FATMA TÜRKER                  0025040001000001800000000 
0096258048YAVUZ BIÇAKÇI                 0025040001000001800000000 
0096258049ERHAN UYSAL                   0025040001000001800000000 
0096258050ALPASLAN ATEŞ                 0025040001000001800000000 
0096258051SEVİLAY MİÇOOĞULLARI          0025040001000001800000000 
0096258052AYŞE ŞAHİN                    0025040001000001800000000 
0096258053ALİ MÜFTÜOĞLU                 0025040001000001800000000 
0096258054HÜLYA AĞÇAM                   0025040001000001800000000 
0096258055ÜMİT ÖZTÜRK                   0025040001000001800000000 
0096258056AYSEL POLAT                   0025040001000001800000000 
0096258057SELÇUK BAYTAR                 0025040001000001800000000 
0096258058İLKER ALÇI                    0025040001000001800000000 
0096258059ŞEMSEDDİN ULUÇAM              0025040001000001800000000 
0096258060FEYZAN ATEŞ                   0025040001000001800000000 
0096258061SEVİNÇ ULUTAN                 0025040001000001800000000 
0096258062CANAN BARUTÇU                 0025040001000001800000000 
0096258063TUBA TEPE                     0025040001000001800000000 
0096258064YASEMİN KOCA                  0025040001000001800000000 
0096258065SULTAN SAY                    0025040001000001800000000 
0096261001EVREN SAVAŞ                   0025060001000001800000000 
0096261002YELİZ BERTAN                  0025060001000001800000000 
0096261003HAMMUT ONUR                   0025060001000001800000000 
0096261004NİLGÜN BULAM                  0025060001000001800000000 
0096261005SEVDA ÖZENİR                  0025060001000001800000000 
0096261006ALİ TATLI                     0025060001000001800000000 
0096261007SAİT YAŞAR                    0025060001000001800000000 
0096261008MEHMET HAKAN DEMİR            0025060001000001800000000 
0096261009EMRAH ERDEM                   0025060001000001800000000 
0096261010ÖZDEN ÖZKAN                   0025060001000001800000000 
0096261011ŞAHİN ÇELİK                   0025060001000001800000000 
0096261012HASAN HÜSEYİN YEŞİL           0025060001000001800000000 
0096261014RIZA KANSU                    0025060001000001800000000 
0096261015HALİL KARA                    0025060001000001800000000 
0096261017İHSAN ARSLAN                  0025060001000001800000000 
0096261018HÜSNÜ KARAKAŞ                 0025060001000001800000000 
0096261019MURAT SUNGUR                  0025060001000001800000000 
0096261020BERKANT BARUT                 0025060001000001800000000 
0096261021İSHAK UÇAK                    0025060001000001800000000 
0096261022MURAT ARSLAN                  0025060001000001800000000 
0096261023BAYKUL AY                     0025060001000001800000000 
0096261024SEYHAN URAL                   0025060001000001800000000 
0096261025HABİB ŞENGÜL                  0025060001000001800000000 
0096261026MEHMET AKILLIOĞLU             0025060001000001800000000 
0096261027AHMET NAZMİ MÜLDÜR            0025060001000001800000000 
0096261028GÜRKAN TAŞKIN                 0025060001000001800000000 
0096261029MEHMET EMİN VAROL             0025060001000001800000000 
0096261030ALİ KADİR KÜÇÜK               0025060001000001800000000 
0096261031MUSTAFA SÖZALDI               0025060001000001800000000 
0096261032ONUR ORTAKÇIOĞLU              0025060001000001800000000 
0096261033ÖZGÜR UĞUR                    0025060001000001800000000 
0096261034MEHMET GÖKKAYA                0025060001000001800000000 
0096261035MUSTAFA TEMEL                 0025060001000001800000000 
0096261037İ.GÜRKAN KOĞA                 0025060001000001800000000 
0096261038İSMAİL KESKİN                 0025060001000001800000000 
0096261039ARİF ŞİMŞEK                   0025060001000001800000000 
0096261040MEHMET YÜKSEL                 0025060001000001800000000 
0096261041MEHMET ALİ ÖZCAN              0025060001000001800000000 
0096261042BARIŞ MET                     0025060001000001800000000 
0096261043AHMET ÇEVİK                   0025060001000001800000000 
0096261044HAVZULLAH KINCAK              0025060001000001800000000 
0096261046EMRAH KÖROĞLU                 0025060001000001800000000 
0096261047ORHAN MALKOF                  0025060001000001800000000 
0096261048HACI AHMET GÖZÜALACA          0025060001000001800000000 
0096261051VEYSEL TOPAK                  0025060001000001800000000 
0096261052MÜRŞİT DİDEM ÇETİNER          0025060001000001800000000 
0096261053BAHAR SAYIM                   0025060001000001800000000 
0096261054SERDAR GÖKOĞLU                0025060001000001800000000 
0096261055BURAK SITKI GÜR               0025060001000001800000000 
0096261056SEMRA TOBAŞ                   0025060001000001800000000 
0096261057SİBEL GÖRÜZOĞLU               0025060001000001800000000 
0096261058FİSUN YALÇIN                  0025060001000001800000000 
0096261059BURAK HOŞCAN                  0025060001000001800000000 
0096275001NESRİN ÇILDIR                 0025050001000001800000000 
0096275002ZEKİYE AKÇİL                  0025050001000001800000000 
0096275003HANİFE YURDACAN               0025050001000001800000000 
0096275004MELİKE DANACI                 0025050001000001800000000 
0096275005MEHMET ALİ KAPLAN             0025050001000001800000000 
0096275006AYŞE ÇULHA                    0025050001000001800000000 
0096275007ŞENGÜL DOĞAN                  0025050001000001800000000 
0096275008MEDİNE YAYMAN                 0025050001000001800000000 
0096275009RUHAN ALTUNHİSAR              0025050001000001800000000 
0096275010AHMET YAŞAR CAYMAZ            0025050001000001800000000 
0096275011RAHİME KORKMAZ                0025050001000001800000000 
0096275012YASEMİN ERDOĞAN               0025050001000001800000000 
0096275013YILMAZ DURUK                  0025050001000001800000000 
0096275014AYTAÇ KARA                    0025050001000001800000000 
0096275015SİBEL ŞENKAYA                 0025050001000001800000000 
0096275016METİN  DELİPALTA              0025050001000001800000000 
0096275017YAKUP ÖZER                    0025050001000001800000000 
0096275018NURSEN GÜLŞEN                 0025050001000001800000000 
0096275019MEVLÜT HALICI                 0025050001000001800000000 
0096275020EMİNE ÜRGER                   0025050001000001800000000 
0096275021AZEM DOĞAN                    0025050001000001800000000 
0096275022EMEL KAMIŞ                    0025050001000001800000000 
0096275023FAHRİYE İPEK                  0025050001000001800000000 
0096275024EMİNE DAM                     0025050001000001800000000 
0096275025HÜRÜ KAR                      0025050001000001800000000 
0096275026AYŞE KARAKELLE                0025050001000001800000000 
0096275027EVREN KARATAŞ                 0025050001000001800000000 
0096275028AYŞE İŞLER                    0025050001000001800000000 
0096275029SEVAL HUSUSİ                  0025050001000001800000000 
0096275030MEHMET SABRİ ERDOĞMUŞ         0025050001000001800000000 
0096275031EMİNE EDA ARIKAN              0025050001000001800000000 
0096275032AYTÜL EKER                    0025050001000001800000000 
0096275033MEHMET ŞİRİN SEVEN            0025050001000001800000000 
0096275034SERAP ESEN                    0025050001000001800000000 
0096275035HATİCE KILINÇARSLAN           0025050001000001800000000 
0096275037ESAT BOZAN                    0025050001000001800000000 
0096275038ERKAN KARAASLAN               0025050001000001800000000 
0096275039MURAT DORUK                   0025050001000001800000000 
0096275041HATİCE ŞİMŞEK                 0025050001000001800000000 
0096275042HASAN KUŞÇU                   0025050001000001800000000 
0096275044REZZAN KESENE                 0025050001000001800000000 
0096275045MURAT KÖKEN                   0025050001000001800000000 
0096275046SELDA ATAR                    0025050001000001800000000 
0096275047GÜLSEN KAYA                   0025050001000001800000000 
0096275048ASİYE ARSLAN                  0025050001000001800000000 
0096285001AYTEN İÇEN                    0025030001000001800000000 
0096285002FATMA ŞAMDANLI                0025030001000001800000000 
0096285004İLHAN ÖZEN                    0025030001000001800000000 
0096285007AHMET KURT                    0025030001000001800000000 
0096285008MEHMET BAKIRCI                0025030001000001800000000 
0096285009IŞIL ÖZDEMİR                  0025030001000001800000000 
0096285010NECLA ÖZ                      0025030001000001800000000 
0096285011ÖZGÜR ÇİFTÇİ                  0025030001000001800000000 
0096285012MEDİNE KORKMAZ                0025030001000001800000000 
0096285013RAHŞAN SİBEL PAMUK            0025030001000001800000000 
0096285014BARIŞ  DİNÇER                 0025030001000001800000000 
0096285016ÖZGÜR DOĞAN                   0025030001000001800000000 
0096285017FATMA ER                      0025030001000001800000000 
0096285018PETEK ÜKÜL                    0025030001000001800000000 
0096285022SEFA YAPICI                   0025030001000001800000000 
0096285024HÜSEYİN ALİ ZENGİN            0025030001000001800000000 
0096285025EDA DOĞAN                     0025030001000001800000000 
0096285026MÜBEŞŞER BALCI                0025030001000001800000000 
0096285027SARİYE YİĞİT                  0025030001000001800000000 
0096285028İBRAHİM POYRAZ                0025030001000001800000000 
0096285029YEŞİM AZMAN                   0025030001000001800000000 
0096285030SERDAR SARI                   0025030001000001800000000 
0096285031EDA YILMAZ                    0025030001000001800000000 
0096285032FİGEN KÖKÇÜ                   0025030001000001800000000 
0096285033ELİF YAVUZER                  0025030001000001800000000 
0096285035HANİFE SAMUK                  0025030001000001800000000 
0096285036SEVİM ŞAHİNOĞULLARI           0025030001000001800000000 
0097222002ARZU KARA                     0025070001000001200000000 
0097222003YASİN ÖZGÜL                   0025070001000001200000000 
0097222004HACI ALİ IŞIK                 0025070001000001200000000 
0097222005ERSİN MAVRUK                  0025070001000001200000000 
0097222006HELİME ÖRKİ                   0025070001000001200000000 
0097222007MUHTEREM DİBOOĞLU             0025070001000001200000000 
0097222008RUŞEN BESNEK                  0025070001000001200000000 
0097222009MELTEM TAYYAR                 0025070001000001200000000 
0097222010SABAHATTİN ADANUR             0025070001000001200000000 
0097222011MESUT BAŞ                     0025070001000001200000000 
0097222012ÇAĞLAR KUTLU                  0025070001000001200000000 
0097222013ELİF BURKAŞ                   0025070001000001200000000 
0097222014BÜNYAMİN MASKAN               0025070001000001200000000 
0097222015GÜLHAN ÖZÇOBAN                0025070001000001200000000 
0097222016VOLKAN KAHRAMAN               0025070001000001200000000 
0097222017GÖNÜL ALATAŞ                  0025070001000001200000000 
0097222018SİBEL TERLEMEZ                0025070001000001200000000 
0097222019FİLİZ YALÇINKAYA              0025070001000001200000000 
0097222020HANDAN YİĞİT                  0025070001000001200000000 
0097222021AYSEL ÇİFTÇİ                  0025070001000001200000000 
0097222022MUSA ÖZSU                     0025070001000001200000000 
0097222023TARKAN AKBULUT                0025070001000001200000000 
0097222024TESLİME ŞAHİN                 0025070001000001200000000 
0097222025YASEMİN DALLI                 0025070001000001200000000 
0097222026AYŞE DÖLEK                    0025070001000001200000000 
0097222027MUSTAFA DERE                  0025070001000001200000000 
0097222028MURAT AĞIR                    0025070001000001200000000 
0097222029AHMET ÇAĞRI TANGUR            0025070001000001200000000 
0097222030SERHAT TEKSİN                 0025070001000001200000000 
0097222032YILDIZ KARAMAN                0025070001000001200000000 
0097222033MERAL İNDİBAY                 0025070001000001200000000 
0097222034SUNA KARAKOÇ                  0025070001000001200000000 
0097222036OKTAY ÖZCAN                   0025070001000001200000000 
0097222037AYŞE SARIBACAK                0025070001000001200000000 
0097222038İBRAHİM MEHMET BOZDOĞAN       0025070001000001200000000 
0097222039BARIŞ NAMLI                   0025070001000001200000000 
0097234001UĞUR ÖZMÜSLÜMAN               0025020001000001200000000 
0097234002SUAT AKSOY                    0025020001000001200000000 
0097234003HAYRETTİN YILMAZ              0025020001000001200000000 
0097234004HALEF ÖZDEMİR                 0025020001000001200000000 
0097234005VAROL ŞİMŞEK                  0025020001000001200000000 
0097234006SERDAR KORKMAZ                0025020001000001200000000 
0097234007MEHMET REMZİ POYRAZ           0025020001000001200000000 
0097234008MURAT KAPLAN                  0025020001000001200000000 
0097234009HACI VELİ PEKERGİN            0025020001000001200000000 
0097234010ALPER TOPÇUDAN                0025020001000001200000000 
0097234011HABİB ALPAR                   0025020001000001200000000 
0097234012SELÇUK DEMİR                  0025020001000001200000000 
0097234013MEHMET ALİ ERBEKTE            0025020001000001200000000 
0097234014MEHMET KATIRANCI              0025020001000001200000000 
0097234015YAVUZ KARADUMAN               0025020001000001200000000 
0097234016AYHAN HANAMLI                 0025020001000001200000000 
0097234017NECMETTİN KAYA                0025020001000001200000000 
0097234018ŞEVKİYE AĞLAGÜL               0025020001000001200000000 
0097234019TAYFUR KEFE                   0025020001000001200000000 
0097234020MEHMET KAYNAR                 0025020001000001200000000 
0097234021HAKAN ŞAHİN                   0025020001000001200000000 
0097234022ABDULKADİR AKGÜL              0025020001000001200000000 
0097234023DURMUŞ YALÇIN                 0025020001000001200000000 
0097234024İBRAHİM ATMACA                0025020001000001200000000 
0097234025TUNCAY GÜNALTIN               0025020001000001200000000 
0097234026BATTAL TORUN                  0025020001000001200000000 
0097234027ÜNAL GİDER                    0025020001000001200000000 
0097234028AHMET CEVDET FİLİKÇİ          0025020001000001200000000 
0097234029HÜSEYİN AYDOĞAN               0025020001000001200000000 
0097234030YÜCEL EVREN                   0025020001000001200000000 
0097234031NUH KURT                      0025020001000001200000000 
0097234032ÖMER FARUK YAKIŞAN            0025020001000001200000000 
0097234033CEM PEKGÜLEÇ                  0025020001000001200000000 
0097234034GÜNAY KAYA                    0025020001000001200000000 
0097234035MUSTAFA YÜCER                 0025020001000001200000000 
0097234036SÜLEYMAN LÖKOĞLU              0025020001000001200000000 
0097234037ONUR ÖZDEŞ KARAKOÇ            0025020001000001200000000 
0097234038SEMİRE KARAAĞAÇLI             0025020001000001200000000 
0097234039HALİL UYGAR EREN              0025020001000001200000000 
0097234040HÜSEYİN KÜÇÜK                 0025020001000001200000000 
0097234041ÇETİN EYİGÜN                  0025020001000001200000000 
0097234042MESUT SUSAL                   0025020001000001200000000 
0097234043BEKİR GÜLLÜ                   0025020001000001200000000 
0097234044HALİT KIVANÇ DÖNMEZ           0025020001000001200000000 
0097234045ÖZGÜR GÜCÜK                   0025020001000001200000000 
0097234046SUAT TÜLÜCE                   0025020001000001200000000 
0097234047MEHMET UÇAR                   0025020001000001200000000 
0097234048SELAMİ ARMUT                  0025020001000001200000000 
0097234049İBRAHİM EMÜL                  0025020001000001200000000 
0097234050SİYAMİ TEYFUR                 0025020001000001200000000 
0097234051ÖZGÜR KARA                    0025020001000001200000000 
0097234053ALİ ŞENER                     0025020001000001200000000 
0097234054ALİ TOY                       0025020001000001200000000 
0097234055RIZA YILDIZ                   0025020001000001200000000 
0097234056REDİF NUREL                   0025020001000001200000000 
0097234057CENGİZ GÖÇMEN                 0025020001000001200000000 
0097234058MAHMUT GÜLBEYAZ               0025020001000001200000000 
0097234059OĞUZ DOĞAN                    0025020001000001200000000 
0097234060ÖMER HALİM KOVAN              0025020001000001200000000 
0097246001GÖKÇEN DÖNMEZ                 0025010001000001200000000 
0097246002HAMZA ATAY                    0025010001000001200000000 
0097246003SABİT ENŞAN                   0025010001000001200000000 
0097246004MURAT UĞUR                    0025010001000001200000000 
0097246005ELİF ARSLAN                   0025010001000001200000000 
0097246007CUMALİ SULHAN                 0025010001000001200000000 
0097246008ALİ KAYA                      0025010001000001200000000 
0097246009NURCAN CERİT                  0025010001000001200000000 
0097246010ERKAN BAĞCİVAN                0025010001000001200000000 
0097246011KENAN KELLER                  0025010001000001200000000 
0097246012ENGİN AKTEPE                  0025010001000001200000000 
0097246013ESRA TEKCAN                   0025010001000001200000000 
0097246014ESAT KAR                      0025010001000001200000000 
0097246015RECEP DEMİRTÜRK               0025010001000001200000000 
0097246016ZAHİDE KARAKUŞ                0025010001000001200000000 
0097246017ALPER VAR                     0025010001000001200000000 
0097246018FATİH DEMİREL                 0025010001000001200000000 
0097246019HALİL ÜSTÜNEL                 0025010001000001200000000 
0097246020ARZU DEMİR                    0025010001000001200000000 
0097246021ERTUĞRUL AYDINOĞLU            0025010001000001200000000 
0097246022YAMAN DİLHUN ARAS             0025010001000001200000000 
0097246023ALİ İNCEUZUN                  0025010001000001200000000 
0097246024MEHMET ARGUNŞAH               0025010001000001200000000 
0097246025UĞURCAN COŞGUN                0025010001000001200000000 
0097246026KEREM POLAT                   0025010001000001200000000 
0097246027SERKAN IŞIK                   0025010001000001200000000 
0097246028ERKAN CÜMENDÜR                0025010001000001200000000 
0097246029ARMAN PEHLİVAN                0025010001000001200000000 
0097246030ERHAN KAYTANCI                0025010001000001200000000 
0097246031NECMİYE SOYDAN                0025010001000001200000000 
0097246032OĞUZHAN ÖZTÜRK                0025010001000001200000000 
0097246033SONER ÜSTÜNER                 0025010001000001200000000 
0097246034HASAN HEKİMOĞLU               0025010001000001200000000 
0097246035MUSTAFA GÜL                   0025010001000001200000000 
0097246036SİNAN KURA                    0025010001000001200000000 
0097246037VEYSEL ÇOLAK                  0025010001000001200000000 
0097246038KEMAL BAHADIR SAVRUN          0025010001000001200000000 
0097246039MUSTAFA YILDIZ                0025010001000001200000000 
0097246040TAYLAN MÜJDE                  0025010001000001200000000 
0097246041OSMAN RUŞEN ŞİMŞEK            0025010001000001200000000 
0097246042AHMET AKYÜZ                   0025010001000001200000000 
0097246044FARUK TAŞ                     0025010001000001200000000 
0097246045SEHER KARAHAN                 0025010001000001200000000 
0097246046HALİL İBRAHİM ÇINGI           0025010001000001200000000 
0097246047HALİL İBRAHİM TUFAN           0025010001000001200000000 
0097246048TÜRKER KOCATÜRK               0025010001000001200000000 
0097246049İSKENDER AYDIN                0025010001000001200000000 
0097246050NADİR DURU                    0025010001000001200000000 
0097246051YILMAZ ÇELİK                  0025010001000001200000000 
0097246052ENVER MÜLAYİM                 0025010001000001200000000 
0097246053İBRAHİM ALICI                 0025010001000001200000000 
0097258001MELEK AYDIN                   0025040001000001200000000 
0097258002DENİZ COŞKUN                  0025040001000001200000000 
0097258003HAKAN SÜVARİ                  0025040001000001200000000 
0097258004GÜLSÜM ŞENEL                  0025040001000001200000000 
0097258005AYSUN ALTUNORDU               0025040001000001200000000 
0097258006AYTUNÇ DEMİRDELEN             0025040001000001200000000 
0097258007PAKİZE ÇETİNER                0025040001000001200000000 
0097258008MAHMUT KUVVET                 0025040001000001200000000 
0097258009ÜNAL OĞAN                     0025040001000001200000000 
0097258010HÜSEYİN ÖZTÜRK                0025040001000001200000000 
0097258011AŞKIN AY                      0025040001000001200000000 
0097258012FATMA YENER                   0025040001000001200000000 
0097258015GÜLTEN KAYA                   0025040001000001200000000 
0097258016DİLEK FIRAT                   0025040001000001200000000 
0097258017SELAHATTİN BASKIN             0025040001000001200000000 
0097258018HÜSEYİN ÖNDER                 0025040001000001200000000 
0097258019ESRA ÖKSÜN                    0025040001000001200000000 
0097258020MEHMET ALİ KARDAŞ             0025040001000001200000000 
0097258022BAHRİYE AYSUN TUNÇ            0025040001000001200000000 
0097258023EBRU GÜNGÖR                   0025040001000001200000000 
0097258024PERİHAN KAHİLOĞULLARI         0025040001000001200000000 
0097258025TUĞBA KİRİŞ                   0025040001000001200000000 
0097258026BİROL AZAP                    0025040001000001200000000 
0097258027GÜLAY KORKMAZ                 0025040001000001200000000 
0097258028SELMA ŞAHİN                   0025040001000001200000000 
0097258029MELAHAT BULUT                 0025040001000001200000000 
0097258031OZAN TAYLAN YILMAZ            0025040001000001200000000 
0097258032BÜLENT YAMAN                  0025040001000001200000000 
0097258033EVRİM POLAT                   0025040001000001200000000 
0097258034MEHMET GÜR                    0025040001000001200000000 
0097258035SERAP EROL                    0025040001000001200000000 
0097258036GANİME BALCELİ                0025040001000001200000000 
0097258037SELİME ÇETİN                  0025040001000001200000000 
0097258038ÇEŞMİM ÖZUĞUR                 0025040001000001200000000 
0097258039BURÇİN KILINÇ                 0025040001000001200000000 
0097258040AHMET TURAN GÜVENÇ            0025040001000001200000000 
0097258041ZÜHAL ÖZLÜ                    0025040001000001200000000 
0097258042CENNET KAYALI                 0025040001000001200000000 
0097258043AYBEL KETRE                   0025040001000001200000000 
0097258044DİLEK OKŞAK                   0025040001000001200000000 
0097258045HALİL ARSLAN                  0025040001000001200000000 
0097258046MUHAMMET ALİ KOCASAKAL        0025040001000001200000000 
0097258047GÜLER CİĞER                   0025040001000001200000000 
0097258048MURAT TÜRKMEN                 0025040001000001200000000 
0097258049AYŞE AKIL                     0025040001000001200000000 
0097258050ZERRİN KÖKSALAN               0025040001000001200000000 
0097258051HİKMET GÖKÇE                  0025040001000001200000000 
0097258052ADİLE YAŞAR                   0025040001000001200000000 
0097258053ÖZLEM HASKAYA                 0025040001000001200000000 
0097258054SERAP ARTUNAL                 0025040001000001200000000 
0097258055SANİYE ÇELİK                  0025040001000001200000000 
0097258056SELMA ŞAHİN DİLER             0025040001000001200000000 
0097258057AZİZE YILDIZ                  0025040001000001200000000 
0097258058FATMA SERİN                   0025040001000001200000000 
0097258059ESRA TİLKİ                    0025040001000001200000000 
0097258060AHMET ÇETİN                   0025040001000001200000000 
0097258061HANİFE TİMUR                  0025040001000001200000000 
0097258062GÖKHAN SAY                    0025040001000001200000000 
0097258063HÜSEYİN SÜNGÜ                 0025040001000001200000000 
0097261001DÜZGÜN SEBA                   0025060001000001200000000 
0097261002İSMAİL KARACA                 0025060001000001200000000 
0097261003TİMUR GÜNAL                   0025060001000001200000000 
0097261004EROL KAYA                     0025060001000001200000000 
0097261005MEHMET GÜLŞEN                 0025060001000001200000000 
0097261006SERDAR ŞEN                    0025060001000001200000000 
0097261007MEHMET ALİ BOĞA               0025060001000001200000000 
0097261008SİNAN ÜNALDI                  0025060001000001200000000 
0097261009ALİ SAK                       0025060001000001200000000 
0097261010MEDİHA AKÇA                   0025060001000001200000000 
0097261011LEVENT SERİNOVA               0025060001000001200000000 
0097261012İRFAN TINKIR                  0025060001000001200000000 
0097261013SELİM URFALI                  0025060001000001200000000 
0097261014İSMAİL ABLAK                  0025060001000001200000000 
0097261015YASİN ÖZTÜRK                  0025060001000001200000000 
0097261016ZEKİ BİÇEL                    0025060001000001200000000 
0097261018ZÜLFİKAR YALÇIN               0025060001000001200000000 
0097261019FATİH BOLATKIRAN              0025060001000001200000000 
0097261020BÜNYAMİN GEZER                0025060001000001200000000 
0097261021ÜNAL KARAKÖSE                 0025060001000001200000000 
0097261022SERTAÇ ŞENGÜL                 0025060001000001200000000 
0097261023ADEM BENLİ                    0025060001000001200000000 
0097261024HACI VELİ DALLI               0025060001000001200000000 
0097261025GÜLAY AKYEL                   0025060001000001200000000 
0097261026İSMAİL ÇULU                   0025060001000001200000000 
0097261027TARKAN AYBAR                  0025060001000001200000000 
0097261028SONER KARACA                  0025060001000001200000000 
0097261029SALİH ATEŞ                    0025060001000001200000000 
0097261030DEMET AKTÜRK                  0025060001000001200000000 
0097261031HİDAYET BUCAK                 0025060001000001200000000 
0097261032ÖZGÜR GÜNGÖR                  0025060001000001200000000 
0097261033KAYHAN REFİK OKUR             0025060001000001200000000 
0097261034MURAT CANLI                   0025060001000001200000000 
0097261035OSMAN TÜRKMEN                 0025060001000001200000000 
0097261036TAYFUN ACIR                   0025060001000001200000000 
0097261037MAHİR BAYRAMOĞLU              0025060001000001200000000 
0097261038İDRİS BİLMECE                 0025060001000001200000000 
0097261039ONUR DESTİÖREN                0025060001000001200000000 
0097261040ABDULLAH BİÇER                0025060001000001200000000 
0097261042AYHAN DOĞRUÖZ                 0025060001000001200000000 
0097261043YELİZ DEMİROĞLU               0025060001000001200000000 
0097261044SELÇUK AYDEMİR                0025060001000001200000000 
0097261045İDRİS YALEM                   0025060001000001200000000 
0097261046MUSTAFA YANIK                 0025060001000001200000000 
0097261047ÖMER CANBOLAT                 0025060001000001200000000 
0097261048MEHMET MURAT AKDENİZ          0025060001000001200000000 
0097261049AHMET SÖZBİLİR                0025060001000001200000000 
0097261050AHMET ÇALIŞKAN                0025060001000001200000000 
0097261051ALİ ŞAHİN                     0025060001000001200000000 
0097261052HAKAN FAİK PALACI             0025060001000001200000000 
0097261053SERVET EKİNCİ                 0025060001000001200000000 
0097261054SEHER ÇADIRCI                 0025060001000001200000000 
0097261055ERCAN ÇİFTÇİ                  0025060001000001200000000 
0097261056AHMET KURT                    0025060001000001200000000 
0097261058SERHAN POYRAZ                 0025060001000001200000000 
0097275001EMİNE ÇETİN                   0025050001000001200000000 
0097275002LEYLA VURUNBİGİ               0025050001000001200000000 
0097275003SABRİ GÜNGÖRDÜ                0025050001000001200000000 
0097275004AHMET ALTUNTAŞ                0025050001000001200000000 
0097275005ZELİHA ÇULHA                  0025050001000001200000000 
0097275006HÜDE RENDE                    0025050001000001200000000 
0097275007SEMRAH KEKEÇ                  0025050001000001200000000 
0097275008SELİM KEMAL ATEŞ              0025050001000001200000000 
0097275009SONGÜL EL                     0025050001000001200000000 
0097275010FATMA KARYAĞDI                0025050001000001200000000 
0097275011YASİN TÜRKMEN                 0025050001000001200000000 
0097275012KÖKSAL GÜVEN                  0025050001000001200000000 
0097275013NESLİHAN ADANALI              0025050001000001200000000 
0097275014GÜLHAN ADANALI                0025050001000001200000000 
0097275015KEZİBAN GÜNYELİ               0025050001000001200000000 
0097275016NEVRA KURTARICI               0025050001000001200000000 
0097275017CEMİLE GÜVEN                  0025050001000001200000000 
0097275018DENİZ ÖZALEVLİ                0025050001000001200000000 
0097275019SİBEL TEZEKİCİ                0025050001000001200000000 
0097275020ALİ GENCER                    0025050001000001200000000 
0097275021DİLEK BALIK                   0025050001000001200000000 
0097275022SENEM DÜDÜKCÜ                 0025050001000001200000000 
0097275023YELİZ APİŞ                    0025050001000001200000000 
0097275024SİBEL GÜRGAN                  0025050001000001200000000 
0097275025AYŞE BUDAK                    0025050001000001200000000 
0097275026YUNUS BEDİR                   0025050001000001200000000 
0097275027SEDA ATANÇ                    0025050001000001200000000 
0097275028ASUMAN TOZAN                  0025050001000001200000000 
0097275029MEHMET MESUT KALKAN           0025050001000001200000000 
0097275030HİLDA AYDIN                   0025050001000001200000000 
0097275031KÜRŞAD SAMANCI                0025050001000001200000000 
0097275032METE EKİNCİ                   0025050001000001200000000 
0097275033EYLEM YALÇIN                  0025050001000001200000000 
0097275034YÜKSEL YÜZÜK                  0025050001000001200000000 
0097275035ZELİHA ARSLAN                 0025050001000001200000000 
0097275036SALİHA KÖMÜR                  0025050001000001200000000 
0097275037NECATİ YETKİN                 0025050001000001200000000 
0097275038MEHTAP TÜRK                   0025050001000001200000000 
0097275039SULTAN SAYILIR                0025050001000001200000000 
0097275040MİNE LOBUT                    0025050001000001200000000 
0097275041YASEMİN SEVİM                 0025050001000001200000000 
0097275042AHMET UDUL                    0025050001000001200000000 
0097275043SONAY AYGÜL                   0025050001000001200000000 
0097275044ALİ GÜLSOY                    0025050001000001200000000 
0097275045ARZU CERYAN                   0025050001000001200000000 
0097275046FATMA EBRU YEREBASMAZ         0025050001000001200000000 
0097275047FATİH OCAK                    0025050001000001200000000 
0097275048MAHMUT EVLİCE                 0025050001000001200000000 
0097275049ABDURRAHMAN TÜRKOĞLU          0025050001000001200000000 
0097275050AHMET MENDUF ŞANLI            0025050001000001200000000 
0097275051GÜRBÜZ UYGUN                  0025050001000001200000000 
0097275052OĞUZ KORKMAZ                  0025050001000001200000000 
0097275054MURAT KALKAN                  0025050001000001200000000 
0097275055MURAT ORDU                    0025050001000001200000000 
0097275056MEHMET GÖK                    0025050001000001200000000 
0097275057NEBİ TAŞ                      0025050001000001200000000 
0097275058MEHMET YAPTI                  0025050001000001200000000 
0097275059İSMAİL FİLİK                  0025050001000001200000000 
0097275060HİDAYET FİLİK                 0025050001000001200000000 
0097275061HALİL UYGUN                   0025050001000001200000000 
0097275062BETÜL DOĞAN                   0025050001000001200000000 
0097275063FAZİLET KAMALAK               0025050001000001200000000 
0097275064YELİZ ÇELİK                   0025050001000001200000000 
0097275065KADİR İZGİ                    0025050001000001200000000 
0097275066SULTAN ÇELİK                  0025050001000001200000000 
0097275067HAKAN DAŞ                     0025050001000001200000000 
0097275068EYLEM ALŞAN                   0025050001000001200000000 
0097275069SEVDA CELAYIR                 0025050001000001200000000 
0097275070NURTEN DAĞLI                  0025050001000001200000000 
0097275071ELİFE EŞKİ                    0025050001000001200000000 
0097285001SEVDA ÇAKMAK                  0025030001000001200000000 
0097285002ARZU ÇITAK                    0025030001000001200000000 
0097285003YUNUS GEDİK                   0025030001000001200000000 
0097285004HATİCE ONATOĞLU               0025030001000001200000000 
0097285005DUDU DURAKLI                  0025030001000001200000000 
0097285006METİN ÖZKAYA                  0025030001000001200000000 
0097285007SEMRA GÜZEY                   0025030001000001200000000 
0097285008BİRGÜL ESEN                   0025030001000001200000000 
0097285009FEVZİYE TARKAN                0025030001000001200000000 
0097285010ŞÜKRAN KIR                    0025030001000001200000000 
0097285011ASLI POLATCAN                 0025030001000001200000000 
0097285012REYHAN İNAL                   0025030001000001200000000 
0097285013ESRA TÜRK                     0025030001000001200000000 
0097285014BİRSEN DAĞDELEN               0025030001000001200000000 
0097285015BİRSEN GÜNEŞER                0025030001000001200000000 
0097285016BARIŞ KAYA GÜLERYÜZ           0025030001000001200000000 
0097285017AYŞE KARAYUMAK                0025030001000001200000000 
0097285018KAHRAMAN ÇELEBİ               0025030001000001200000000 
0097285019İHSAN BULUT                   0025030001000001200000000 
0097285020YASEMİN YALÇIN                0025030001000001200000000 
0097285021TÜLAY SAVCILI                 0025030001000001200000000 
0097285022SENİHA ÇAKIR                  0025030001000001200000000 
0097285023PERİHAN DEMİRBAŞ              0025030001000001200000000 
0097285024HASİBE TÜREGÜN                0025030001000001200000000 
0097285025GÜLSÜM KARAKAYA               0025030001000001200000000 
0097285026DAVUT KAYA                    0025030001000001200000000 
0097285027MUSTAFA GÜVEN                 0025030001000001200000000 
0097285028İBRAHİM TATAR                 0025030001000001200000000 
0097285029RUKİYE ÖZDEMİR                0025030001000001200000000 
0097285030SULTAN BAYIR                  0025030001000001200000000 
0097285031HATUN BAŞBUĞA                 0025030001000001200000000 
0097285033YILMAZ SAĞDIÇ                 0025030001000001200000000 
0097285034EMİNE TÜLÜ                    0025030001000001200000000 
0097285035ASİYE BEKTAŞ                  0025030001000001200000000 
0097285036BEYHAN AÇIKGÖZ                0025030001000001200000000 
0097285037BANU SÜNBÜL                   0025030001000001200000000 
0097285038NİYAZİ AKSU                   0025030001000001200000000 
0097285039CAVİDAN AKDAĞ                 0025030001000001200000000 
0097285041SİNAN GEÇER                   0025030001000001200000000 
0097285042ŞEFİKA DEMİRBAŞ               0025030001000001200000000 
0097285043NESRİN ARICI                  0025030001000001200000000 
F0000001188002221200000000                                               
